{
  "contractName": "Audit",
  "abi": [
    {
      "inputs": [],
      "stateMutability": "nonpayable",
      "type": "constructor"
    },
    {
      "anonymous": false,
      "inputs": [
        {
          "indexed": true,
          "internalType": "address",
          "name": "owner",
          "type": "address"
        },
        {
          "indexed": true,
          "internalType": "address",
          "name": "approved",
          "type": "address"
        },
        {
          "indexed": true,
          "internalType": "uint256",
          "name": "tokenId",
          "type": "uint256"
        }
      ],
      "name": "Approval",
      "type": "event"
    },
    {
      "anonymous": false,
      "inputs": [
        {
          "indexed": true,
          "internalType": "address",
          "name": "owner",
          "type": "address"
        },
        {
          "indexed": true,
          "internalType": "address",
          "name": "operator",
          "type": "address"
        },
        {
          "indexed": false,
          "internalType": "bool",
          "name": "approved",
          "type": "bool"
        }
      ],
      "name": "ApprovalForAll",
      "type": "event"
    },
    {
      "anonymous": false,
      "inputs": [
        {
          "indexed": true,
          "internalType": "address",
          "name": "previousOwner",
          "type": "address"
        },
        {
          "indexed": true,
          "internalType": "address",
          "name": "newOwner",
          "type": "address"
        }
      ],
      "name": "OwnershipTransferred",
      "type": "event"
    },
    {
      "anonymous": false,
      "inputs": [
        {
          "indexed": true,
          "internalType": "address",
          "name": "from",
          "type": "address"
        },
        {
          "indexed": true,
          "internalType": "address",
          "name": "to",
          "type": "address"
        },
        {
          "indexed": true,
          "internalType": "uint256",
          "name": "tokenId",
          "type": "uint256"
        }
      ],
      "name": "Transfer",
      "type": "event"
    },
    {
      "inputs": [
        {
          "internalType": "address",
          "name": "to",
          "type": "address"
        },
        {
          "internalType": "uint256",
          "name": "tokenId",
          "type": "uint256"
        }
      ],
      "name": "approve",
      "outputs": [],
      "stateMutability": "nonpayable",
      "type": "function"
    },
    {
      "inputs": [
        {
          "internalType": "uint256",
          "name": "",
          "type": "uint256"
        }
      ],
      "name": "auditRevealed",
      "outputs": [
        {
          "internalType": "bool",
          "name": "",
          "type": "bool"
        }
      ],
      "stateMutability": "view",
      "type": "function"
    },
    {
      "inputs": [
        {
          "internalType": "address",
          "name": "owner",
          "type": "address"
        }
      ],
      "name": "balanceOf",
      "outputs": [
        {
          "internalType": "uint256",
          "name": "",
          "type": "uint256"
        }
      ],
      "stateMutability": "view",
      "type": "function"
    },
    {
      "inputs": [],
      "name": "baseURI",
      "outputs": [
        {
          "internalType": "string",
          "name": "",
          "type": "string"
        }
      ],
      "stateMutability": "view",
      "type": "function"
    },
    {
      "inputs": [
        {
          "internalType": "uint256",
          "name": "tokenId",
          "type": "uint256"
        }
      ],
      "name": "getApproved",
      "outputs": [
        {
          "internalType": "address",
          "name": "",
          "type": "address"
        }
      ],
      "stateMutability": "view",
      "type": "function"
    },
    {
      "inputs": [],
      "name": "getTrustedForwarder",
      "outputs": [
        {
          "internalType": "address",
          "name": "forwarder",
          "type": "address"
        }
      ],
      "stateMutability": "view",
      "type": "function"
    },
    {
      "inputs": [
        {
          "internalType": "address",
          "name": "owner",
          "type": "address"
        },
        {
          "internalType": "address",
          "name": "operator",
          "type": "address"
        }
      ],
      "name": "isApprovedForAll",
      "outputs": [
        {
          "internalType": "bool",
          "name": "",
          "type": "bool"
        }
      ],
      "stateMutability": "view",
      "type": "function"
    },
    {
      "inputs": [
        {
          "internalType": "address",
          "name": "forwarder",
          "type": "address"
        }
      ],
      "name": "isTrustedForwarder",
      "outputs": [
        {
          "internalType": "bool",
          "name": "",
          "type": "bool"
        }
      ],
      "stateMutability": "view",
      "type": "function"
    },
    {
      "inputs": [],
      "name": "maxTokensPerWallet",
      "outputs": [
        {
          "internalType": "uint256",
          "name": "",
          "type": "uint256"
        }
      ],
      "stateMutability": "view",
      "type": "function"
    },
    {
      "inputs": [],
      "name": "name",
      "outputs": [
        {
          "internalType": "string",
          "name": "",
          "type": "string"
        }
      ],
      "stateMutability": "view",
      "type": "function"
    },
    {
      "inputs": [],
      "name": "owner",
      "outputs": [
        {
          "internalType": "address",
          "name": "",
          "type": "address"
        }
      ],
      "stateMutability": "view",
      "type": "function"
    },
    {
      "inputs": [
        {
          "internalType": "uint256",
          "name": "tokenId",
          "type": "uint256"
        }
      ],
      "name": "ownerOf",
      "outputs": [
        {
          "internalType": "address",
          "name": "",
          "type": "address"
        }
      ],
      "stateMutability": "view",
      "type": "function"
    },
    {
      "inputs": [],
      "name": "renounceOwnership",
      "outputs": [],
      "stateMutability": "nonpayable",
      "type": "function"
    },
    {
      "inputs": [
        {
          "internalType": "address",
          "name": "from",
          "type": "address"
        },
        {
          "internalType": "address",
          "name": "to",
          "type": "address"
        },
        {
          "internalType": "uint256",
          "name": "tokenId",
          "type": "uint256"
        }
      ],
      "name": "safeTransferFrom",
      "outputs": [],
      "stateMutability": "nonpayable",
      "type": "function"
    },
    {
      "inputs": [
        {
          "internalType": "address",
          "name": "from",
          "type": "address"
        },
        {
          "internalType": "address",
          "name": "to",
          "type": "address"
        },
        {
          "internalType": "uint256",
          "name": "tokenId",
          "type": "uint256"
        },
        {
          "internalType": "bytes",
          "name": "data",
          "type": "bytes"
        }
      ],
      "name": "safeTransferFrom",
      "outputs": [],
      "stateMutability": "nonpayable",
      "type": "function"
    },
    {
      "inputs": [
        {
          "internalType": "address",
          "name": "operator",
          "type": "address"
        },
        {
          "internalType": "bool",
          "name": "approved",
          "type": "bool"
        }
      ],
      "name": "setApprovalForAll",
      "outputs": [],
      "stateMutability": "nonpayable",
      "type": "function"
    },
    {
      "inputs": [],
      "name": "symbol",
      "outputs": [
        {
          "internalType": "string",
          "name": "",
          "type": "string"
        }
      ],
      "stateMutability": "view",
      "type": "function"
    },
    {
      "inputs": [
        {
          "internalType": "uint256",
          "name": "index",
          "type": "uint256"
        }
      ],
      "name": "tokenByIndex",
      "outputs": [
        {
          "internalType": "uint256",
          "name": "",
          "type": "uint256"
        }
      ],
      "stateMutability": "view",
      "type": "function"
    },
    {
      "inputs": [
        {
          "internalType": "address",
          "name": "owner",
          "type": "address"
        },
        {
          "internalType": "uint256",
          "name": "index",
          "type": "uint256"
        }
      ],
      "name": "tokenOfOwnerByIndex",
      "outputs": [
        {
          "internalType": "uint256",
          "name": "",
          "type": "uint256"
        }
      ],
      "stateMutability": "view",
      "type": "function"
    },
    {
      "inputs": [],
      "name": "totalSupply",
      "outputs": [
        {
          "internalType": "uint256",
          "name": "",
          "type": "uint256"
        }
      ],
      "stateMutability": "view",
      "type": "function"
    },
    {
      "inputs": [
        {
          "internalType": "address",
          "name": "from",
          "type": "address"
        },
        {
          "internalType": "address",
          "name": "to",
          "type": "address"
        },
        {
          "internalType": "uint256",
          "name": "tokenId",
          "type": "uint256"
        }
      ],
      "name": "transferFrom",
      "outputs": [],
      "stateMutability": "nonpayable",
      "type": "function"
    },
    {
      "inputs": [
        {
          "internalType": "address",
          "name": "newOwner",
          "type": "address"
        }
      ],
      "name": "transferOwnership",
      "outputs": [],
      "stateMutability": "nonpayable",
      "type": "function"
    },
    {
      "inputs": [
        {
          "internalType": "address",
          "name": "_to",
          "type": "address"
        }
      ],
      "name": "mint",
      "outputs": [],
      "stateMutability": "nonpayable",
      "type": "function"
    },
    {
      "inputs": [
        {
          "internalType": "uint256",
          "name": "tokenId",
          "type": "uint256"
        }
      ],
      "name": "tokenURI",
      "outputs": [
        {
          "internalType": "string",
          "name": "",
          "type": "string"
        }
      ],
      "stateMutability": "view",
      "type": "function"
    },
    {
      "inputs": [
        {
          "internalType": "bytes4",
          "name": "interfaceId",
          "type": "bytes4"
        }
      ],
      "name": "supportsInterface",
      "outputs": [
        {
          "internalType": "bool",
          "name": "",
          "type": "bool"
        }
      ],
      "stateMutability": "view",
      "type": "function"
    },
    {
      "inputs": [
        {
          "internalType": "address",
          "name": "_to",
          "type": "address"
        },
        {
          "internalType": "uint256",
          "name": "_tokenId",
          "type": "uint256"
        }
      ],
      "name": "trustlessHandoff",
      "outputs": [],
      "stateMutability": "nonpayable",
      "type": "function"
    },
    {
      "inputs": [
        {
          "internalType": "string",
          "name": "base",
          "type": "string"
        },
        {
          "internalType": "uint256",
          "name": "salt",
          "type": "uint256"
        }
      ],
      "name": "generateProof",
      "outputs": [
        {
          "internalType": "uint256",
          "name": "",
          "type": "uint256"
        }
      ],
      "stateMutability": "pure",
      "type": "function"
    },
    {
      "inputs": [
        {
          "internalType": "uint256",
          "name": "tokenId",
          "type": "uint256"
        },
        {
          "internalType": "string",
          "name": "base",
          "type": "string"
        },
        {
          "internalType": "uint256",
          "name": "salt",
          "type": "uint256"
        }
      ],
      "name": "verifyProof",
      "outputs": [
        {
          "internalType": "bool",
          "name": "",
          "type": "bool"
        }
      ],
      "stateMutability": "pure",
      "type": "function"
    }
  ],
  "bytecode": "0x60803462000358576040906001600160401b03908083018281118282101762000344578352601581526020907f4265766f72417564697444656c6976657261626c6500000000000000000000008282015283518481018181108582111762000344578552600381526210905160ea1b8382015281519380851162000344575f94806200008c87546200035c565b94601f9586811162000314575b508690868311600114620002ad578892620002a1575b50508160011b915f199060031b1c19161785555b81519081116200028d5780600192620000dd84546200035c565b85811162000252575b508590858311600114620001ef578792620001e3575b50505f19600383901b1c191690821b1790555b601436101580620001ce575b15620001c75736601319013560601c5b600a80546001600160a01b039283166001600160a01b0319821681179092559091167f8be0079c531659141344cd1fd0a4f28419497f9722a3daafe3b4186f6b6457e08580a36200017e600d546200035c565b90808211620001a5575b5050505f600d556064600e55600f555161181b9081620003b08239f35b620001be92600d85528420910160051c81019062000397565b5f808062000188565b336200012b565b50600b546001600160a01b031633146200011b565b015190505f80620000fc565b8488528688208594509190601f198416895b898282106200023b575050841162000222575b505050811b0190556200010f565b01515f1960f88460031b161c191690555f808062000214565b838501518655889790950194938401930162000201565b6200027c908589528789208780860160051c8201928a871062000283575b0160051c019062000397565b5f620000e6565b9250819262000270565b634e487b7160e01b85526041600452602485fd5b015190505f80620000af565b8880528789209250601f198416895b89828210620002fd575050908460019594939210620002e4575b505050811b018555620000c3565b01515f1960f88460031b161c191690555f8080620002d6565b6001859682939686015181550195019301620002bc565b6200033d90898052888a208880860160051c8201928b871062000283570160051c019062000397565b5f62000099565b634e487b7160e01b5f52604160045260245ffd5b5f80fd5b90600182811c921680156200038c575b60208310146200037857565b634e487b7160e01b5f52602260045260245ffd5b91607f16916200036c565b818110620003a3575050565b5f81556001016200039756fe60806040818152600480361015610014575f80fd5b5f92833560e01c90816301ffc9a714610e445750806306fdde0314610d7a578063081812fc14610d5a578063095ea7b314610bd9578063157a772e14610b8e57806318160ddd14610b6f57806323b872dd14610b4d5780632602af6914610b0d5780632f745c5914610a6157806342842e0e14610a38578063469132ce14610a195780634f6ccce714610986578063572b6c0514610952578063629e919f146108f55780636352211e146108c45780636a6278421461070a5780636c0360eb1461063e57806370a0823114610611578063715018a6146105b45780638da5cb5b1461058b57806395d89b4114610473578063a22cb4651461039f578063b88d4fde14610337578063c87b56dd146102c9578063ce1b815f146102a0578063e985e9c51461024e578063f2ef2935146102225763f2fde38b14610154575f80fd5b3461021e57602036600319011261021e5761016d610f10565b90610176611037565b6001600160a01b039182169283156101cc575050600a54826bffffffffffffffffffffffff60a01b821617600a55167f8be0079c531659141344cd1fd0a4f28419497f9722a3daafe3b4186f6b6457e08380a380f35b906020608492519162461bcd60e51b8352820152602660248201527f4f776e61626c653a206e6577206f776e657220697320746865207a65726f206160448201526564647265737360d01b6064820152fd5b8280fd5b503461021e57602036600319011261021e578160209360ff923581526010855220541690519015158152f35b50503461029c578060031936011261029c5760ff8160209361026e610f10565b610276610f2a565b6001600160a01b0391821683526005875283832091168252855220549151911615158152f35b5080fd5b50503461029c578160031936011261029c57600b5490516001600160a01b039091168152602090f35b5091903461029c57602036600319011261029c5761030661030161033394355f52600260205260018060a01b0360405f205416151590565b61110f565b81815161031281610f40565b5280519161031f83610f40565b825251918291602083526020830190610eeb565b0390f35b83823461029c57608036600319011261029c57610352610f10565b61035a610f2a565b9060643567ffffffffffffffff811161039b573660238201121561039b576103989381602461038e93369301359101610fae565b916044359161121b565b80f35b8480fd5b503461021e578160031936011261021e576103b8610f10565b916024359081151580920361039b576103cf61172a565b6001600160a01b0394851694169283851461043157507f17307eab39ab6107e8899845ad3d59bd9653f200f220920489ca2b5937696c319160209184875260058352808720868852835280872060ff1981541660ff841617905551908152a380f35b6020606492519162461bcd60e51b8352820152601960248201527f4552433732313a20617070726f766520746f2063616c6c6572000000000000006044820152fd5b5091346105885780600319360112610588578151918160019283549384811c9181861695861561057e575b602096878510811461056b578899509688969785829a5291825f146105445750506001146104e9575b50505061033392916104da910385610f70565b51928284938452830190610eeb565b91908693508083527fb10e2d527612073b26eecdfd717e6a320cf44b4afac2b0732d9fcbe2b7fa0cf65b82841061052c57505050820101816104da6103336104c7565b8054848a018601528895508794909301928101610513565b60ff19168782015293151560051b860190930193508492506104da915061033390506104c7565b634e487b7160e01b835260228a52602483fd5b92607f169261049e565b80fd5b50503461029c578160031936011261029c57600a5490516001600160a01b039091168152602090f35b83346105885780600319360112610588576105cd611037565b600a80546001600160a01b0319811690915581906001600160a01b03167f8be0079c531659141344cd1fd0a4f28419497f9722a3daafe3b4186f6b6457e08280a380f35b50503461029c57602036600319011261029c57602090610637610632610f10565b61109a565b9051908152f35b50913461058857806003193601126105885781519181600d5492600184811c91818616958615610700575b602096878510811461056b578899509688969785829a5291825f146105445750506001146106a45750505061033392916104da910385610f70565b9190869350600d83527fd7b6990105719101dabeb77144f2a3385c8033acd3af97e9423a695e81ad1eb55b8284106106e857505050820101816104da6103336104c7565b8054848a0186015288955087949093019281016106cf565b92607f1692610669565b503461021e57602091826003193601126108c057610726610f10565b9261072f611037565b600f5493600185018095116108ad57600f8590556001600160a01b03811693841561086c575f86815260026020526040902054610778906001600160a01b031615155b1561175e565b60085490868852600984528185892055600160401b821015610859575060029291610632876107b08460016107c896016008556116e1565b90919082549060031b91821b915f19901b1916179055565b84875260068252838720818852825283872086905585875260078252838720555f8581526002602052604090205461080a906001600160a01b03161515610772565b838652600381528286208054600101905584865252832080546001600160a01b03191682179055827fddf252ad1be2c89b69c2b068fc378daa952ba7f163c4a11628f55a4df523b3ef8180a480f35b634e487b7160e01b885260419052602487fd5b606490838086519262461bcd60e51b845283015260248201527f4552433732313a206d696e7420746f20746865207a65726f20616464726573736044820152fd5b634e487b7160e01b865260118452602486fd5b8380fd5b50913461058857602036600319011261058857506108e46020923561115b565b90516001600160a01b039091168152f35b50503461029c578060031936011261029c5761039890610913610f10565b6024358085526010602052918420805460ff1916600117905561093461172a565b61094d6109488461094361172a565b6112b8565b6111b9565b61137c565b50503461029c57602036600319011261029c57602090610970610f10565b60018060a01b0380600b54169116149051908152f35b50823461058857602036600319011261058857508035906008548210156109c1576020836109b3846116e1565b91905490519160031b1c8152f35b608490602084519162461bcd60e51b8352820152602c60248201527f455243373231456e756d657261626c653a20676c6f62616c20696e646578206f60448201526b7574206f6620626f756e647360a01b6064820152fd5b50503461029c578160031936011261029c57602090600e549051908152f35b50503461029c5761039890610a4c36611002565b91925192610a5984610f40565b85845261121b565b509134610588578160031936011261058857610a7b610f10565b60243590610a888161109a565b821015610ab6576001600160a01b031682526006602090815283832091835290815290829020548251908152f35b835162461bcd60e51b8152602081870152602b60248201527f455243373231456e756d657261626c653a206f776e657220696e646578206f7560448201526a74206f6620626f756e647360a81b6064820152608490fd5b50913461058857816003193601126105885782359067ffffffffffffffff82116105885750610b4460209361063792369101610fe4565b602435906117aa565b833461058857610398610b5f36611002565b9161094d6109488461094361172a565b50503461029c578160031936011261029c576020906008549051908152f35b503461021e57606036600319011261021e576024359267ffffffffffffffff84116105885750610bcf610bc660209436908401610fe4565b604435906117aa565b9035149051908152f35b503461021e578160031936011261021e57610bf2610f10565b6024359290916001600160a01b0391908280610c0d8761115b565b16941693808514610d0d578084610c2261172a565b1614908115610ce3575b5015610c7b57848652602052842080546001600160a01b03191683179055610c538361115b565b167f8c5be1e5ebec7d5bd14f71427d1e84f3dd0314c0f7b2291e5b200ac8c7c3b9258480a480f35b6020608492519162461bcd60e51b8352820152603d60248201527f4552433732313a20617070726f76652063616c6c6572206973206e6f7420746f60448201527f6b656e206f776e6572206f7220617070726f76656420666f7220616c6c0000006064820152fd5b9050610ced61172a565b9087526005602052838388209116875260205260ff82872054165f610c2c565b506020608492519162461bcd60e51b8352820152602160248201527f4552433732313a20617070726f76616c20746f2063757272656e74206f776e656044820152603960f91b6064820152fd5b50913461058857602036600319011261058857506108e46020923561117d565b50913461058857806003193601126105885781519181825492600184811c91818616958615610e3a575b602096878510811461056b578899509688969785829a5291825f14610544575050600114610ddf5750505061033392916104da910385610f70565b91908693508280527f290decd9548b62a8d60345a988386fc84ba6bc95484008f6362f93160ef3e5635b828410610e2257505050820101816104da6103336104c7565b8054848a018601528895508794909301928101610e09565b92607f1692610da4565b9250503461021e57602036600319011261021e573563ffffffff60e01b811680910361021e576020925063780e9d6360e01b8114908115610e87575b5015158152f35b6380ac58cd60e01b811491508115610eb9575b8115610ea8575b505f610e80565b6301ffc9a760e01b1490505f610ea1565b635b5e139f60e01b81149150610e9a565b5f5b838110610edb5750505f910152565b8181015183820152602001610ecc565b90602091610f0481518092818552858086019101610eca565b601f01601f1916010190565b600435906001600160a01b0382168203610f2657565b5f80fd5b602435906001600160a01b0382168203610f2657565b6020810190811067ffffffffffffffff821117610f5c57604052565b634e487b7160e01b5f52604160045260245ffd5b90601f8019910116810190811067ffffffffffffffff821117610f5c57604052565b67ffffffffffffffff8111610f5c57601f01601f191660200190565b929192610fba82610f92565b91610fc86040519384610f70565b829481845281830111610f26578281602093845f960137010152565b9080601f83011215610f2657816020610fff93359101610fae565b90565b6060906003190112610f26576001600160a01b03906004358281168103610f2657916024359081168103610f26579060443590565b600a546001600160a01b039081169061104e61172a565b160361105657565b606460405162461bcd60e51b815260206004820152602060248201527f4f776e61626c653a2063616c6c6572206973206e6f7420746865206f776e65726044820152fd5b6001600160a01b031680156110b8575f52600360205260405f205490565b60405162461bcd60e51b815260206004820152602960248201527f4552433732313a2061646472657373207a65726f206973206e6f7420612076616044820152683634b21037bbb732b960b91b6064820152608490fd5b1561111657565b60405162461bcd60e51b815260206004820152601860248201527f4552433732313a20696e76616c696420746f6b656e20494400000000000000006044820152606490fd5b5f908152600260205260409020546001600160a01b0316610fff81151561110f565b5f8181526002602052604090205461119f906001600160a01b0316151561110f565b5f908152600460205260409020546001600160a01b031690565b156111c057565b60405162461bcd60e51b815260206004820152602d60248201527f4552433732313a2063616c6c6572206973206e6f7420746f6b656e206f776e6560448201526c1c881bdc88185c1c1c9bdd9959609a1b6064820152608490fd5b906112419392916112316109488461094361172a565b61123c83838361137c565b6115ba565b1561124857565b60405162461bcd60e51b81528061126160048201611265565b0390fd5b60809060208152603260208201527f4552433732313a207472616e7366657220746f206e6f6e20455243373231526560408201527131b2b4bb32b91034b6b83632b6b2b73a32b960711b60608201520190565b906001600160a01b0380806112cc8461115b565b169316918383149384156112ff575b5083156112e9575b50505090565b6112f59192935061117d565b16145f80806112e3565b9093505f52600560205260405f20825f5260205260ff60405f205416925f6112db565b1561132957565b60405162461bcd60e51b815260206004820152602560248201527f4552433732313a207472616e736665722066726f6d20696e636f72726563742060448201526437bbb732b960d91b6064820152608490fd5b6113a0916113898461115b565b6001600160a01b0393848416939185168414611322565b838216938415611569578391826114b45750905060085490855f5260096020528160405f2055600160401b821015610f5c57611404926113eb876107b08560018997016008556116e1565b828603611482575b506113fd8661115b565b1614611322565b7fddf252ad1be2c89b69c2b068fc378daa952ba7f163c4a11628f55a4df523b3ef5f8481526004602052604081206bffffffffffffffffffffffff60a01b908181541690558382526003602052604082205f1981540190558482526040822060018154019055858252600260205284604083209182541617905580a4565b61148b9061109a565b60405f87815260066020528181208382526020528882822055888152600760205220555f6113f3565b8583036114c6575b50611404926113eb565b6114d191925061109a565b5f19810191908211611555576114049284925f90888252602090600782526040918284205482810361151e575b508a845283838120558684526006815282842091845252812055926114bc565b878552600682528385208386528252838520548886526006835284862082875283528085872055855260078252838520555f6114fe565b634e487b7160e01b5f52601160045260245ffd5b60405162461bcd60e51b8152602060048201526024808201527f4552433732313a207472616e7366657220746f20746865207a65726f206164646044820152637265737360e01b6064820152608490fd5b92939190803b156116d757611618946115d161172a565b92604051928391630a85bd0160e11b9586845260018060a01b039889809216600486015216602484015260448301526080606483015281806020998a956084830190610eeb565b03915f988991165af1849181611697575b50611686575050503d5f1461167e573d61164281610f92565b906116506040519283610f70565b81528091833d92013e5b8051918261167b5760405162461bcd60e51b81528061126160048201611265565b01fd5b50606061165a565b6001600160e01b0319161492509050565b9091508581813d83116116d0575b6116af8183610f70565b8101031261039b57516001600160e01b03198116810361039b57905f611629565b503d6116a5565b5050915050600190565b6008548110156117165760085f527ff3f7a9fe364faab93b216da50a3214154f22a0a2b415b23a84c8169e8b636ee301905f90565b634e487b7160e01b5f52603260045260245ffd5b60143610158061174a575b156117465736601319013560601c90565b3390565b50600b546001600160a01b03163314611735565b1561176557565b60405162461bcd60e51b815260206004820152601c60248201527f4552433732313a20746f6b656e20616c7265616479206d696e746564000000006044820152606490fd5b906117df60408051809360206117c98184019788815193849201610eca565b8201906020820152036020810184520182610f70565b5190209056fea2646970667358221220c37658c64d05dac003eb8bdc8519076a7308171e8543870c7287b8d5509bd57064736f6c63430008140033",
  "immutableReferences": {},
  "source": "// SPDX-License-Identifier: MIT\n\npragma solidity ^0.8.0;\n\nimport \"@openzeppelin/contracts/token/ERC721/extensions/ERC721Enumerable.sol\";\nimport \"@openzeppelin/contracts/token/ERC721/ERC721.sol\";\nimport \"@openzeppelin/contracts/utils/Counters.sol\";\nimport \"@openzeppelin/contracts/access/Ownable.sol\";\nimport \"@opengsn/contracts/src/ERC2771Recipient.sol\";\nimport \"@openzeppelin/contracts/utils/Strings.sol\";\nimport \"./ISmartAgreement.sol\";\n\ncontract Audit is ERC721, ERC721Enumerable, Ownable, ERC2771Recipient {\n    address[] internal _test;\n    string public baseURI = \"\";\n    uint256 public maxTokensPerWallet = 100;\n    uint256 _tokenId = 0;\n\n    mapping(uint256 => bool) public auditRevealed;\n\n\n    constructor() ERC721(\"BevorAuditDeliverable\", \"BAD\") { }\n\n    function _msgSender() internal view override(Context, ERC2771Recipient) returns (address sender) {\n        sender = ERC2771Recipient._msgSender();\n    }\n\n    function _msgData() internal view override(Context, ERC2771Recipient) returns (bytes calldata) {\n        return ERC2771Recipient._msgData();\n    }\n\n    function mint(address _to) public onlyOwner() {\n        _tokenId += 1;\n        _mint(_to, _tokenId);\n    }\n\n    function _beforeTokenTransfer(\n        address from,\n        address to,\n        uint256 firstTokenId,\n        uint256 batchSize\n    ) internal virtual override(ERC721, ERC721Enumerable) {\n        super._beforeTokenTransfer(from, to, firstTokenId, batchSize);\n    }\n\n    function _burn(uint256 tokenId) internal override(ERC721) {\n        super._burn(tokenId);\n    }\n\n    function tokenURI(uint256 tokenId)\n        public\n        view\n        override(ERC721)\n        returns (string memory)\n    {\n        return super.tokenURI(tokenId);\n    }\n\n    function supportsInterface(bytes4 interfaceId)\n        public\n        view\n        override(ERC721, ERC721Enumerable)\n        returns (bool)\n    {\n        return super.supportsInterface(interfaceId);\n    }\n\n    function _baseURI(uint256 _tokenId) internal view returns (string memory) {\n        if (auditRevealed[_tokenId]) {\n            return \"https://ipfs.io/ipfs/\";\n        }\n        else {\n            return \"https://api.bevor.io/\";\n        }\n    }\n\n    function trustlessHandoff(address _to, uint256 _tokenId) public {\n        auditRevealed[_tokenId] = true;\n        transferFrom(_msgSender(), _to, _tokenId);\n    }\n\n    /**\n     * @dev Generates a Proof Of Integrity as the keccak256 hash of a human readable {base} and a randomly pre-generated number {salt}.\n     */\n    function generateProof(string memory base, uint256 salt) public pure returns (uint256) {\n        return uint256(keccak256(abi.encodePacked(base, salt)));\n    }\n\n    /**\n     * @dev Verifies a Proof Of Integrity {proof} against a human readable {base} and a randomly pre-generated number {salt}.\n     */\n    function verifyProof(uint256 tokenId, string memory base, uint256 salt) public pure returns (bool) {\n        return tokenId == generateProof(base, salt);\n    }\n}",
  "sourcePath": "/Users/blakehatch/WebstormProjects/Bevor-Contracts/contracts/Audit.sol",
  "compiler": {
    "name": "solc",
    "version": "0.8.20+commit.a1b79de6.Emscripten.clang"
  },
  "schemaVersion": "3.4.14",
  "updatedAt": "2023-06-10T03:47:55.556Z",
  "devdoc": {
    "events": {
      "Approval(address,address,uint256)": {
        "details": "Emitted when `owner` enables `approved` to manage the `tokenId` token."
      },
      "ApprovalForAll(address,address,bool)": {
        "details": "Emitted when `owner` enables or disables (`approved`) `operator` to manage all of its assets."
      },
      "Transfer(address,address,uint256)": {
        "details": "Emitted when `tokenId` token is transferred from `from` to `to`."
      }
    },
    "kind": "dev",
    "methods": {
      "approve(address,uint256)": {
        "details": "See {IERC721-approve}."
      },
      "balanceOf(address)": {
        "details": "See {IERC721-balanceOf}."
      },
      "generateProof(string,uint256)": {
        "details": "Generates a Proof Of Integrity as the keccak256 hash of a human readable {base} and a randomly pre-generated number {salt}."
      },
      "getApproved(uint256)": {
        "details": "See {IERC721-getApproved}."
      },
      "getTrustedForwarder()": {
        "returns": {
          "forwarder": "The address of the Forwarder contract that is being used."
        }
      },
      "isApprovedForAll(address,address)": {
        "details": "See {IERC721-isApprovedForAll}."
      },
      "isTrustedForwarder(address)": {
        "params": {
          "forwarder": "The address of the Forwarder contract that is being used."
        },
        "returns": {
          "_0": "isTrustedForwarder `true` if the Forwarder is trusted to forward relayed transactions by this Recipient."
        }
      },
      "name()": {
        "details": "See {IERC721Metadata-name}."
      },
      "owner()": {
        "details": "Returns the address of the current owner."
      },
      "ownerOf(uint256)": {
        "details": "See {IERC721-ownerOf}."
      },
      "renounceOwnership()": {
        "details": "Leaves the contract without owner. It will not be possible to call `onlyOwner` functions. Can only be called by the current owner. NOTE: Renouncing ownership will leave the contract without an owner, thereby disabling any functionality that is only available to the owner."
      },
      "safeTransferFrom(address,address,uint256)": {
        "details": "See {IERC721-safeTransferFrom}."
      },
      "safeTransferFrom(address,address,uint256,bytes)": {
        "details": "See {IERC721-safeTransferFrom}."
      },
      "setApprovalForAll(address,bool)": {
        "details": "See {IERC721-setApprovalForAll}."
      },
      "symbol()": {
        "details": "See {IERC721Metadata-symbol}."
      },
      "tokenByIndex(uint256)": {
        "details": "See {IERC721Enumerable-tokenByIndex}."
      },
      "tokenOfOwnerByIndex(address,uint256)": {
        "details": "See {IERC721Enumerable-tokenOfOwnerByIndex}."
      },
      "tokenURI(uint256)": {
        "details": "See {IERC721Metadata-tokenURI}."
      },
      "totalSupply()": {
        "details": "See {IERC721Enumerable-totalSupply}."
      },
      "transferFrom(address,address,uint256)": {
        "details": "See {IERC721-transferFrom}."
      },
      "transferOwnership(address)": {
        "details": "Transfers ownership of the contract to a new account (`newOwner`). Can only be called by the current owner."
      },
      "verifyProof(uint256,string,uint256)": {
        "details": "Verifies a Proof Of Integrity {proof} against a human readable {base} and a randomly pre-generated number {salt}."
      }
    },
    "version": 1
  },
  "userdoc": {
    "kind": "user",
    "methods": {
      "getTrustedForwarder()": {
        "notice": ":warning: **Warning** :warning: The Forwarder can have a full control over your Recipient. Only trust verified Forwarder.Method is not a required method to allow Recipients to trust multiple Forwarders. Not recommended yet."
      },
      "isTrustedForwarder(address)": {
        "notice": ":warning: **Warning** :warning: The Forwarder can have a full control over your Recipient. Only trust verified Forwarder."
      }
    },
    "version": 1
  }
}