{
  "contractName": "AuditPayment",
  "abi": [
    {
      "inputs": [
        {
          "internalType": "address",
          "name": "dao_",
          "type": "address"
        },
        {
          "internalType": "contract IAudit",
          "name": "audit_",
          "type": "address"
        }
      ],
      "stateMutability": "nonpayable",
      "type": "constructor"
    },
    {
      "anonymous": false,
      "inputs": [
        {
          "indexed": true,
          "internalType": "address",
          "name": "previousOwner",
          "type": "address"
        },
        {
          "indexed": true,
          "internalType": "address",
          "name": "newOwner",
          "type": "address"
        }
      ],
      "name": "OwnershipTransferred",
      "type": "event"
    },
    {
      "stateMutability": "payable",
      "type": "fallback"
    },
    {
      "inputs": [],
      "name": "audit",
      "outputs": [
        {
          "internalType": "contract IAudit",
          "name": "",
          "type": "address"
        }
      ],
      "stateMutability": "view",
      "type": "function"
    },
    {
      "inputs": [],
      "name": "dao",
      "outputs": [
        {
          "internalType": "address",
          "name": "",
          "type": "address"
        }
      ],
      "stateMutability": "view",
      "type": "function"
    },
    {
      "inputs": [
        {
          "internalType": "address",
          "name": "",
          "type": "address"
        }
      ],
      "name": "holdersVestingCount",
      "outputs": [
        {
          "internalType": "uint256",
          "name": "",
          "type": "uint256"
        }
      ],
      "stateMutability": "view",
      "type": "function"
    },
    {
      "inputs": [],
      "name": "owner",
      "outputs": [
        {
          "internalType": "address",
          "name": "",
          "type": "address"
        }
      ],
      "stateMutability": "view",
      "type": "function"
    },
    {
      "inputs": [],
      "name": "renounceOwnership",
      "outputs": [],
      "stateMutability": "nonpayable",
      "type": "function"
    },
    {
      "inputs": [
        {
          "internalType": "address",
          "name": "newOwner",
          "type": "address"
        }
      ],
      "name": "transferOwnership",
      "outputs": [],
      "stateMutability": "nonpayable",
      "type": "function"
    },
    {
      "inputs": [
        {
          "internalType": "bytes32",
          "name": "",
          "type": "bytes32"
        }
      ],
      "name": "vestingSchedules",
      "outputs": [
        {
          "internalType": "address",
          "name": "auditor",
          "type": "address"
        },
        {
          "internalType": "address",
          "name": "auditee",
          "type": "address"
        },
        {
          "internalType": "uint256",
          "name": "cliff",
          "type": "uint256"
        },
        {
          "internalType": "uint256",
          "name": "start",
          "type": "uint256"
        },
        {
          "internalType": "uint256",
          "name": "duration",
          "type": "uint256"
        },
        {
          "internalType": "uint256",
          "name": "slicePeriodSeconds",
          "type": "uint256"
        },
        {
          "internalType": "bool",
          "name": "withdrawlPaused",
          "type": "bool"
        },
        {
          "internalType": "uint256",
          "name": "amountTotal",
          "type": "uint256"
        },
        {
          "internalType": "uint256",
          "name": "released",
          "type": "uint256"
        },
        {
          "internalType": "uint256",
          "name": "withdrawn",
          "type": "uint256"
        },
        {
          "internalType": "bool",
          "name": "auditInvalidated",
          "type": "bool"
        },
        {
          "internalType": "contract ERC20",
          "name": "_token",
          "type": "address"
        },
        {
          "internalType": "uint256",
          "name": "_tokenId",
          "type": "uint256"
        }
      ],
      "stateMutability": "view",
      "type": "function"
    },
    {
      "inputs": [
        {
          "internalType": "uint256",
          "name": "",
          "type": "uint256"
        }
      ],
      "name": "vestingSchedulesIds",
      "outputs": [
        {
          "internalType": "bytes32",
          "name": "",
          "type": "bytes32"
        }
      ],
      "stateMutability": "view",
      "type": "function"
    },
    {
      "stateMutability": "payable",
      "type": "receive"
    },
    {
      "inputs": [
        {
          "internalType": "address",
          "name": "_auditor",
          "type": "address"
        },
        {
          "internalType": "uint256",
          "name": "_start",
          "type": "uint256"
        },
        {
          "internalType": "uint256",
          "name": "_cliff",
          "type": "uint256"
        },
        {
          "internalType": "uint256",
          "name": "_duration",
          "type": "uint256"
        },
        {
          "internalType": "uint256",
          "name": "_slicePeriodSeconds",
          "type": "uint256"
        },
        {
          "internalType": "uint256",
          "name": "_amount",
          "type": "uint256"
        },
        {
          "internalType": "contract ERC20",
          "name": "_token",
          "type": "address"
        },
        {
          "internalType": "uint256",
          "name": "_tokenId",
          "type": "uint256"
        }
      ],
      "name": "createVestingSchedule",
      "outputs": [],
      "stateMutability": "nonpayable",
      "type": "function"
    },
    {
      "inputs": [
        {
          "internalType": "bytes32",
          "name": "vestingScheduleId",
          "type": "bytes32"
        }
      ],
      "name": "invalidateAudit",
      "outputs": [],
      "stateMutability": "nonpayable",
      "type": "function"
    },
    {
      "inputs": [
        {
          "internalType": "bytes32",
          "name": "vestingScheduleId",
          "type": "bytes32"
        }
      ],
      "name": "withdraw",
      "outputs": [],
      "stateMutability": "nonpayable",
      "type": "function"
    },
    {
      "inputs": [
        {
          "internalType": "address",
          "name": "_beneficiary",
          "type": "address"
        }
      ],
      "name": "getVestingSchedulesCountByBeneficiary",
      "outputs": [
        {
          "internalType": "uint256",
          "name": "",
          "type": "uint256"
        }
      ],
      "stateMutability": "view",
      "type": "function"
    },
    {
      "inputs": [
        {
          "internalType": "uint256",
          "name": "index",
          "type": "uint256"
        }
      ],
      "name": "getVestingIdAtIndex",
      "outputs": [
        {
          "internalType": "bytes32",
          "name": "",
          "type": "bytes32"
        }
      ],
      "stateMutability": "view",
      "type": "function"
    },
    {
      "inputs": [
        {
          "internalType": "address",
          "name": "holder",
          "type": "address"
        },
        {
          "internalType": "uint256",
          "name": "index",
          "type": "uint256"
        }
      ],
      "name": "getVestingScheduleByAddressAndIndex",
      "outputs": [
        {
          "components": [
            {
              "internalType": "address",
              "name": "auditor",
              "type": "address"
            },
            {
              "internalType": "address",
              "name": "auditee",
              "type": "address"
            },
            {
              "internalType": "uint256",
              "name": "cliff",
              "type": "uint256"
            },
            {
              "internalType": "uint256",
              "name": "start",
              "type": "uint256"
            },
            {
              "internalType": "uint256",
              "name": "duration",
              "type": "uint256"
            },
            {
              "internalType": "uint256",
              "name": "slicePeriodSeconds",
              "type": "uint256"
            },
            {
              "internalType": "bool",
              "name": "withdrawlPaused",
              "type": "bool"
            },
            {
              "internalType": "uint256",
              "name": "amountTotal",
              "type": "uint256"
            },
            {
              "internalType": "uint256",
              "name": "released",
              "type": "uint256"
            },
            {
              "internalType": "uint256",
              "name": "withdrawn",
              "type": "uint256"
            },
            {
              "internalType": "bool",
              "name": "auditInvalidated",
              "type": "bool"
            },
            {
              "internalType": "contract ERC20",
              "name": "_token",
              "type": "address"
            },
            {
              "internalType": "uint256",
              "name": "_tokenId",
              "type": "uint256"
            }
          ],
          "internalType": "struct AuditPayment.VestingSchedule",
          "name": "",
          "type": "tuple"
        }
      ],
      "stateMutability": "view",
      "type": "function"
    },
    {
      "inputs": [],
      "name": "getVestingSchedulesCount",
      "outputs": [
        {
          "internalType": "uint256",
          "name": "",
          "type": "uint256"
        }
      ],
      "stateMutability": "view",
      "type": "function"
    },
    {
      "inputs": [
        {
          "internalType": "bytes32",
          "name": "vestingScheduleId",
          "type": "bytes32"
        }
      ],
      "name": "computeReleasableAmount",
      "outputs": [
        {
          "internalType": "uint256",
          "name": "",
          "type": "uint256"
        }
      ],
      "stateMutability": "view",
      "type": "function"
    },
    {
      "inputs": [
        {
          "internalType": "bytes32",
          "name": "vestingScheduleId",
          "type": "bytes32"
        }
      ],
      "name": "getVestingSchedule",
      "outputs": [
        {
          "components": [
            {
              "internalType": "address",
              "name": "auditor",
              "type": "address"
            },
            {
              "internalType": "address",
              "name": "auditee",
              "type": "address"
            },
            {
              "internalType": "uint256",
              "name": "cliff",
              "type": "uint256"
            },
            {
              "internalType": "uint256",
              "name": "start",
              "type": "uint256"
            },
            {
              "internalType": "uint256",
              "name": "duration",
              "type": "uint256"
            },
            {
              "internalType": "uint256",
              "name": "slicePeriodSeconds",
              "type": "uint256"
            },
            {
              "internalType": "bool",
              "name": "withdrawlPaused",
              "type": "bool"
            },
            {
              "internalType": "uint256",
              "name": "amountTotal",
              "type": "uint256"
            },
            {
              "internalType": "uint256",
              "name": "released",
              "type": "uint256"
            },
            {
              "internalType": "uint256",
              "name": "withdrawn",
              "type": "uint256"
            },
            {
              "internalType": "bool",
              "name": "auditInvalidated",
              "type": "bool"
            },
            {
              "internalType": "contract ERC20",
              "name": "_token",
              "type": "address"
            },
            {
              "internalType": "uint256",
              "name": "_tokenId",
              "type": "uint256"
            }
          ],
          "internalType": "struct AuditPayment.VestingSchedule",
          "name": "",
          "type": "tuple"
        }
      ],
      "stateMutability": "view",
      "type": "function"
    },
    {
      "inputs": [
        {
          "internalType": "address",
          "name": "holder",
          "type": "address"
        }
      ],
      "name": "computeNextVestingScheduleIdForHolder",
      "outputs": [
        {
          "internalType": "bytes32",
          "name": "",
          "type": "bytes32"
        }
      ],
      "stateMutability": "view",
      "type": "function"
    },
    {
      "inputs": [
        {
          "internalType": "address",
          "name": "holder",
          "type": "address"
        }
      ],
      "name": "getLastVestingScheduleForHolder",
      "outputs": [
        {
          "components": [
            {
              "internalType": "address",
              "name": "auditor",
              "type": "address"
            },
            {
              "internalType": "address",
              "name": "auditee",
              "type": "address"
            },
            {
              "internalType": "uint256",
              "name": "cliff",
              "type": "uint256"
            },
            {
              "internalType": "uint256",
              "name": "start",
              "type": "uint256"
            },
            {
              "internalType": "uint256",
              "name": "duration",
              "type": "uint256"
            },
            {
              "internalType": "uint256",
              "name": "slicePeriodSeconds",
              "type": "uint256"
            },
            {
              "internalType": "bool",
              "name": "withdrawlPaused",
              "type": "bool"
            },
            {
              "internalType": "uint256",
              "name": "amountTotal",
              "type": "uint256"
            },
            {
              "internalType": "uint256",
              "name": "released",
              "type": "uint256"
            },
            {
              "internalType": "uint256",
              "name": "withdrawn",
              "type": "uint256"
            },
            {
              "internalType": "bool",
              "name": "auditInvalidated",
              "type": "bool"
            },
            {
              "internalType": "contract ERC20",
              "name": "_token",
              "type": "address"
            },
            {
              "internalType": "uint256",
              "name": "_tokenId",
              "type": "uint256"
            }
          ],
          "internalType": "struct AuditPayment.VestingSchedule",
          "name": "",
          "type": "tuple"
        }
      ],
      "stateMutability": "view",
      "type": "function"
    },
    {
      "inputs": [
        {
          "internalType": "address",
          "name": "holder",
          "type": "address"
        },
        {
          "internalType": "uint256",
          "name": "index",
          "type": "uint256"
        }
      ],
      "name": "computeVestingScheduleIdForAddressAndIndex",
      "outputs": [
        {
          "internalType": "bytes32",
          "name": "",
          "type": "bytes32"
        }
      ],
      "stateMutability": "pure",
      "type": "function"
    }
  ],
  "bytecode": "0x6080346100d457601f61152d38819003918201601f19168301916001600160401b038311848410176100d85780849260409485528339810103126100d45780516001600160a01b0391828216918290036100d45760200151908282168092036100d4575f8054336001600160a01b0319808316821784556040519690949392167f8be0079c531659141344cd1fd0a4f28419497f9722a3daafe3b4186f6b6457e08380a36001805581156100d15783156100d15750816006541617600655600554161760055561144090816100ed8239f35b80fd5b5f80fd5b634e487b7160e01b5f52604160045260245ffdfe608080604052600436101561001a575b50361561001857005b005b5f90813560e01c908163130836171461105d575080631ddc0ef0146110345780634162169f1461100b578063471121d114610fd25780635a7bb69a14610fd25780635f777eea14610e3d5780636041788714610d76578063715018a614610d1c5780637e913dc614610ca35780638815e86214610c785780638af104da14610c505780638da5cb5b14610c295780638e19899e14610a675780639ef346b414610a47578063e22cae05146103ae578063ea1bb3d51461036e578063f2fde38b146102ab578063f51321d7146101ca578063f7c469f0146101875763f9079b370361000f57346101845760203660031901126101845760043560025481101561013557610127602091611093565b90546040519160031b1c8152f35b60405162461bcd60e51b815260206004820152602160248201527f546f6b656e56657374696e673a20696e646578206f7574206f6620626f756e646044820152607360f81b6064820152608490fd5b80fd5b5034610184576020366003190112610184576101c260209160406101a9611079565b6001600160a01b038116835260048552912054906112f1565b604051908152f35b5034610184576040366003190112610184576102a76102046101ff6101ed611079565b6101f5611272565b50602435906112f1565b6112d2565b604051918291829190916101a081019260018060a01b0380825116835280602083015116602084015260408201516040840152606082015160608401526080820151608084015260a082015160a084015260c0820151151560c084015260e082015160e084015261010080830151908401526101208083015190840152610140808301511515908401526101609081830151169083015261018080910151910152565b0390f35b5034610184576020366003190112610184576102c5611079565b6102cd6110dc565b6001600160a01b0390811690811561031a575f54826001600160601b0360a01b8216175f55167f8be0079c531659141344cd1fd0a4f28419497f9722a3daafe3b4186f6b6457e05f80a380f35b60405162461bcd60e51b815260206004820152602660248201527f4f776e61626c653a206e6577206f776e657220697320746865207a65726f206160448201526564647265737360d01b6064820152608490fd5b50346101845760203660031901126101845760043581526003602052604081209060ff600a830154166101845760206101c26103a9846111bf565b611365565b5034610184576101009081600319360112610184576103cb611079565b60c43592906001600160a01b0384168403610a43576103e86110dc565b6040516323b872dd60e01b815233600482015230602482015260a435604482018190529490602081606481886001600160a01b0387165af18015610a3857610a09575b506040516370a0823160e01b81523060048201526024939060208186816001600160a01b0387165afa9081156109fe5790879187916109c5575b50106109485760649586359283156108fa5781156108b757608435916001831061085e576044359283861061080b5791600b93916101809360018060a01b0389168b5260046020526104bb60408c20548a6112f1565b976104c88b35958661119e565b94604051956104d687611133565b60018060a01b038c16875233602088015260408701526060860152608085015260a08401528960c084015260e08301528885830152886101208301528861014083015260018060a01b031661016082015260e435828201528488526003602052604088209360018060a01b038251166001600160601b0360a01b9081875416178655600186019060018060a01b036020850151169082541617905560408201516002860155606082015160038601556080820151600486015560a082015160058601556105b860c08301511515600687019060ff801983541691151516179055565b60e0820151600786015581015160088501556101208101516009850155600a84016105f66101408301511515829060ff801983541691151516179055565b6101608201518154610100600160a81b03191660089190911b610100600160a81b03161790550151910155600254680100000000000000008110156107f8578060016106459201600255611093565b81545f1960039290921b91821b191692901b9190911790556001600160a01b03811683526004602052604083205460018101919082106107e55760018060a01b031683526004602052604083205560018060a01b03600554166040516331a9108f60e11b815260e43560048201526020818481855afa9081156107da578491610794575b50336001600160a01b039091160361075157829350803b1561074d57829060446040518095819363629e919f60e01b835233600484015260e435878401525af1801561074257610717578280f35b67ffffffffffffffff821161073057506040525f808280f35b634e487b7160e01b8352604160045282fd5b6040513d85823e3d90fd5b5050fd5b60405162461bcd60e51b8152602060048201819052818401527f4175646974204e4654206973206e6f74206f776e65642062792063616c6c657260448201528490fd5b90506020813d6020116107d2575b816107af60209383611164565b810103126107ce57516001600160a01b03811681036107ce575f6106c9565b8380fd5b3d91506107a2565b6040513d86823e3d90fd5b634e487b7160e01b845260116004528284fd5b634e487b7160e01b855260416004528385fd5b60405162461bcd60e51b8152602060048201526027818a01527f546f6b656e56657374696e673a206475726174696f6e206d757374206265203e6044820152661e9031b634b33360c91b818c0152608490fd5b60405162461bcd60e51b815260206004820152602d818901527f546f6b656e56657374696e673a20736c696365506572696f645365636f6e647360448201526c206d757374206265203e3d203160981b818b0152608490fd5b60405162461bcd60e51b8152602060048201819052818801527f546f6b656e56657374696e673a20616d6f756e74206d757374206265203e203060448201528890fd5b60405162461bcd60e51b8152602060048201526022818801527f546f6b656e56657374696e673a206475726174696f6e206d757374206265203e604482015261020360f41b818a0152608490fd5b60405162461bcd60e51b815260206004820152604a818601527f546f6b656e56657374696e673a2063616e6e6f7420637265617465207665737460448201527f696e67207363686564756c652062656361757365206e6f742073756666696369606482015269656e7420746f6b656e7360b01b608482015260a490fd5b9150506020813d6020116109f6575b816109e160209383611164565b810103126109f2578690515f610465565b8580fd5b3d91506109d4565b6040513d88823e3d90fd5b610a2a9060203d602011610a31575b610a228183611164565b810190611186565b505f61042b565b503d610a18565b6040513d87823e3d90fd5b8280fd5b5034610184576020366003190112610184576102a76102046004356112d2565b503461018457602080600319360112610c2557600260015414610be157600260015560043582526003815260408220600a81015460ff81166107ce57815484546001600160a01b03918216919033808414918316148115610bd9575b5015610b63579183918686946008610ae06103a9610b2a996111bf565b9501610aed86825461119e565b90556040516323b872dd60e01b81523060048201526001600160a01b03909316602484015260448301949094529094859384929183906064820190565b039360081c165af1801561074257610b45575b826001805580f35b81610b5b92903d10610a3157610a228183611164565b505f80610b3d565b60405162461bcd60e51b815260048101869052604260248201527f546f6b656e56657374696e673a206f6e6c792062656e6566696369617279206160448201527f6e64206f776e65722063616e2072656c656173652076657374656420746f6b656064820152616e7360f01b608482015260a490fd5b90505f610ac3565b6064906040519062461bcd60e51b82526004820152601f60248201527f5265656e7472616e637947756172643a207265656e7472616e742063616c6c006044820152fd5b5080fd5b5034610184578060031936011261018457546040516001600160a01b039091168152602090f35b50346101845760403660031901126101845760206101c2610c6f611079565b602435906112f1565b5034610184576020366003190112610184576004359060025482101561018457602061012783611093565b503461018457602036600319011261018457610cbd611079565b610cc5611272565b506001600160a01b0381168252600460205260408220545f19810191908211610d08576102a792610cfb610204936040936112f1565b81526003602052206111bf565b634e487b7160e01b83526011600452602483fd5b5034610184578060031936011261018457610d356110dc565b80546001600160a01b03198116825581906001600160a01b03167f8be0079c531659141344cd1fd0a4f28419497f9722a3daafe3b4186f6b6457e08280a380f35b50346101845760203660031901126101845760406101a091600435815260036020522060018060a01b039081815416918060018301541691600281015460038201546004830154600584015460ff60068601541690600786015492600887015494600988015496600b600a8a01549901549a6040519c8d5260208d015260408c015260608b015260808a015260a0890152151560c088015260e087015261010086015261012085015260ff8116151561014085015260081c16610160830152610180820152f35b503461018457602080600319360112610c2557610e586110dc565b60043582526003815260408220600a81019081549060ff8216610fce578391610e836103a9836111bf565b9081610f38575b5050610f0592600186610ebc6007850154600886015490610eab8282611265565b508460ff1987541617809655611265565b938201546040516323b872dd60e01b815230600482015260a084901b939093039081166001600160a01b0316602484015260448301949094529094859384929183906064820190565b039360081c165af1801561074257610f1b578280f35b81610f3192903d10610a3157610a228183611164565b505f808280f35b90610f8f94939160088401610f4e83825461119e565b905583546040516323b872dd60e01b81523060048201526001600160a01b03918216602482015260448101939093529195869283918a919083906064820190565b039360081c165af1918215610a3857610f05938593610fb1575b819450610e8a565b610fc790843d8611610a3157610a228183611164565b505f610fa9565b8480fd5b5034610184576020366003190112610184576020906040906001600160a01b03610ffa611079565b168152600483522054604051908152f35b50346101845780600319360112610184576006546040516001600160a01b039091168152602090f35b50346101845780600319360112610184576005546040516001600160a01b039091168152602090f35b905034610c255781600319360112610c25576020906002548152f35b600435906001600160a01b038216820361108f57565b5f80fd5b6002548110156110c85760025f527f405787fa12a823e0f2b7631cc41b3ba8828b3321ca811111fa75cd3aa3bb5ace01905f90565b634e487b7160e01b5f52603260045260245ffd5b5f546001600160a01b031633036110ef57565b606460405162461bcd60e51b815260206004820152602060248201527f4f776e61626c653a2063616c6c6572206973206e6f7420746865206f776e65726044820152fd5b6101a0810190811067ffffffffffffffff82111761115057604052565b634e487b7160e01b5f52604160045260245ffd5b90601f8019910116810190811067ffffffffffffffff82111761115057604052565b9081602091031261108f5751801515810361108f5790565b919082018092116111ab57565b634e487b7160e01b5f52601160045260245ffd5b906040516111cc81611133565b610180600b829460018060a01b03808254168552806001830154166020860152600282015460408601526003820154606086015260048201546080860152600582015460a086015260ff600683015416151560c0860152600782015460e086015260088201546101008601526009820154610120860152600a82015460ff8116151561014087015260081c166101608501520154910152565b919082039182116111ab57565b6040519061127f82611133565b816101805f918281528260208201528260408201528260608201528260808201528260a08201528260c08201528260e0820152826101008201528261012082015282610140820152826101608201520152565b6112da611272565b505f5260036020526112ee60405f206111bf565b90565b906040519060208201926001600160601b03199060601b1683526034820152603481526060810181811067ffffffffffffffff8211176111505760405251902090565b811561133e570490565b634e487b7160e01b5f52601260045260245ffd5b818102929181159184041417156111ab57565b6040810151421080156113fc575b1561137d57505f90565b6060810190815191611395608083019384519061119e565b42106113b257506112ee915061010060e082015191015190611265565b6113f36112ee936113eb6113e16113cd610100955142611265565b6113dc60a08801518092611334565b611352565b60e0860151611352565b905190611334565b91015190611265565b50610140810151151561137356fea26469706673582212208546c1ded17df4f4a6c3d440a90f8a73478d3a27f22cf82dbd436892ad617f9364736f6c63430008140033",
  "immutableReferences": {},
  "source": "// SPDX-License-Identifier: MIT\npragma solidity ^0.8.19;\n\n// OpenZeppelin dependencies\nimport \"@openzeppelin/contracts/token/ERC20/ERC20.sol\";\nimport \"@openzeppelin/contracts/token/ERC721/ERC721.sol\";\nimport \"@openzeppelin/contracts/security/ReentrancyGuard.sol\";\nimport \"@openzeppelin/contracts/access/Ownable.sol\";\nimport \"./IAudit.sol\";\n\n/**\n * @title AuditPayment\n */\ncontract AuditPayment is Ownable, ReentrancyGuard {\n    struct VestingSchedule {\n        // beneficiary of tokens after they are released\n        address auditor;\n        // beneficiary of tokens after they are released\n        address auditee;\n        // cliff period in seconds\n        uint256 cliff;\n        // start time of the vesting period\n        uint256 start;\n        // duration of the vesting period in seconds\n        uint256 duration;\n        // duration of a slice period for the vesting in seconds\n        uint256 slicePeriodSeconds;\n        // whether or not the vesting is revocable\n        bool withdrawlPaused;\n        // total amount of tokens to be released at the end of the vesting\n        uint256 amountTotal;\n        // amount of tokens released\n        uint256 released;\n        // amount of tokens withdrawn\n        uint256 withdrawn;\n        // amount of tokens in escrow for payment\n        bool auditInvalidated;\n        // address of the ERC20 token vesting\n        ERC20 _token;\n        // address of the ERC721 audit NFT\n        uint256 _tokenId;\n    }\n\n    bytes32[] public vestingSchedulesIds;\n    mapping(bytes32 => VestingSchedule) public vestingSchedules;\n    mapping(address => uint256) public holdersVestingCount;\n    IAudit public audit;\n    address public dao;\n\n    /**\n     * @dev Reverts if the vesting schedule does not exist or has been revoked.\n     */\n    modifier onlyIfVestingScheduleNotRevoked(bytes32 vestingScheduleId) {\n        require(!vestingSchedules[vestingScheduleId].auditInvalidated);\n        _;\n    }\n\n    /**\n     * @dev Creates a vesting contract.\n     * @param dao_ address of the Bevor DAO that controls\n     */\n    constructor(address dao_, IAudit audit_) {\n        // Check that the token address is not 0x0.\n        require(dao_ != address(0x0));\n        require(address(audit_) != address(0x0));\n        dao = dao_;\n        audit = audit_;\n    }\n\n    /**\n     * @dev This function is called for plain Ether transfers, i.e. for every call with empty calldata.\n     */\n    receive() external payable {}\n\n    /**\n     * @dev Fallback function is executed if none of the other functions match the function\n     * identifier or no data was provided with the function call.\n     */\n    fallback() external payable {}\n\n    /**\n     * @notice Creates a new vesting schedule for a beneficiary.\n     * @param _auditor address of the beneficiary to whom vested tokens are transferred\n     * @param _start start time of the vesting period\n     * @param _cliff duration in seconds of the cliff in which tokens will begin to vest\n     * @param _duration duration in seconds of the period in which the tokens will vest\n     */\n    function createVestingSchedule(\n        address _auditor,\n        uint256 _start,\n        uint256 _cliff,\n        uint256 _duration,\n        uint256 _slicePeriodSeconds,\n        uint256 _amount,\n        ERC20 _token,\n        uint256 _tokenId\n    ) external onlyOwner {\n        _token.transferFrom(msg.sender, address(this), _amount);\n\n        require(\n            _token.balanceOf(address(this)) >= _amount,\n            \"TokenVesting: cannot create vesting schedule because not sufficient tokens\"\n        );\n        require(_duration > 0, \"TokenVesting: duration must be > 0\");\n        require(_amount > 0, \"TokenVesting: amount must be > 0\");\n        require(\n            _slicePeriodSeconds >= 1,\n            \"TokenVesting: slicePeriodSeconds must be >= 1\"\n        );\n        require(_duration >= _cliff, \"TokenVesting: duration must be >= cliff\");\n        bytes32 vestingScheduleId = computeNextVestingScheduleIdForHolder(\n            _auditor\n        );\n        uint256 cliff = _start + _cliff;\n\n        vestingSchedules[vestingScheduleId] = VestingSchedule(\n            _auditor,\n            msg.sender,\n            cliff,\n            _start,\n            _duration,\n            _slicePeriodSeconds,\n            false,\n            _amount,\n            0,\n            0,\n            false,\n            _token,\n            _tokenId\n        );\n        vestingSchedulesIds.push(vestingScheduleId);\n        uint256 currentVestingCount = holdersVestingCount[_auditor];\n        holdersVestingCount[_auditor] = currentVestingCount + 1;\n\n        // Revert if audit nft does not exist\n        require(audit.ownerOf(_tokenId) == msg.sender, \"Audit NFT is not owned by caller\");\n\n        // Reveal audit metadata once payment starts\n        audit.trustlessHandoff(msg.sender, _tokenId);\n    }\n\n    /**\n     * @notice Revokes the vesting schedule for given identifier.\n     * @param vestingScheduleId the vesting schedule identifier\n     */\n    function invalidateAudit(\n        bytes32 vestingScheduleId\n    ) external onlyOwner onlyIfVestingScheduleNotRevoked(vestingScheduleId) {\n        VestingSchedule storage vestingSchedule = vestingSchedules[\n            vestingScheduleId\n        ];\n\n        uint256 vestedAmount = _computeReleasableAmount(vestingSchedule);\n        if (vestedAmount > 0) {\n            vestingSchedule.released += vestedAmount;\n            vestingSchedule._token.transferFrom(address(this), vestingSchedule.auditor, vestedAmount);\n        }\n        uint256 unreleased = vestingSchedule.amountTotal -\n            vestingSchedule.released;\n\n        vestingSchedule.auditInvalidated = true;\n\n        uint256 returnTotalAmount = vestingSchedule.amountTotal - vestingSchedule.released;\n        vestingSchedule._token.transferFrom(address(this), vestingSchedule.auditee, returnTotalAmount);\n    }\n\n    /**\n     * @notice Release vested amount of tokens.\n     * @param vestingScheduleId the vesting schedule identifier\n     */\n    function withdraw(\n        bytes32 vestingScheduleId\n    ) public nonReentrant onlyIfVestingScheduleNotRevoked(vestingScheduleId) {\n        VestingSchedule storage vestingSchedule = vestingSchedules[\n            vestingScheduleId\n        ];\n        bool isBeneficiary = msg.sender == vestingSchedule.auditor;\n\n        bool isReleasor = (msg.sender == owner());\n        require(\n            isBeneficiary || isReleasor,\n            \"TokenVesting: only beneficiary and owner can release vested tokens\"\n        );\n        uint256 vestedAmount = _computeReleasableAmount(vestingSchedule);\n        vestingSchedule.released += vestedAmount;\n\n        vestingSchedule._token.transferFrom(address(this), vestingSchedule.auditor, vestedAmount);\n    }\n\n    /**\n     * @dev Returns the number of vesting schedules associated to a beneficiary.\n     * @return the number of vesting schedules\n     */\n    function getVestingSchedulesCountByBeneficiary(\n        address _beneficiary\n    ) external view returns (uint256) {\n        return holdersVestingCount[_beneficiary];\n    }\n\n    /**\n     * @dev Returns the vesting schedule id at the given index.\n     * @return the vesting id\n     */\n    function getVestingIdAtIndex(\n        uint256 index\n    ) external view returns (bytes32) {\n        require(\n            index < getVestingSchedulesCount(),\n            \"TokenVesting: index out of bounds\"\n        );\n        return vestingSchedulesIds[index];\n    }\n\n    /**\n     * @notice Returns the vesting schedule information for a given holder and index.\n     * @return the vesting schedule structure information\n     */\n    function getVestingScheduleByAddressAndIndex(\n        address holder,\n        uint256 index\n    ) external view returns (VestingSchedule memory) {\n        return\n            getVestingSchedule(\n                computeVestingScheduleIdForAddressAndIndex(holder, index)\n            );\n    }\n\n    /**\n     * @dev Returns the number of vesting schedules managed by this contract.\n     * @return the number of vesting schedules\n     */\n    function getVestingSchedulesCount() public view returns (uint256) {\n        return vestingSchedulesIds.length;\n    }\n\n    /**\n     * @notice Computes the vested amount of tokens for the given vesting schedule identifier.\n     * @return the vested amount\n     */\n    function computeReleasableAmount(\n        bytes32 vestingScheduleId\n    )\n        external\n        view\n        onlyIfVestingScheduleNotRevoked(vestingScheduleId)\n        returns (uint256)\n    {\n        VestingSchedule storage vestingSchedule = vestingSchedules[\n            vestingScheduleId\n        ];\n        return _computeReleasableAmount(vestingSchedule);\n    }\n\n    /**\n     * @notice Returns the vesting schedule information for a given identifier.\n     * @return the vesting schedule structure information\n     */\n    function getVestingSchedule(\n        bytes32 vestingScheduleId\n    ) public view returns (VestingSchedule memory) {\n        return vestingSchedules[vestingScheduleId];\n    }\n\n    /**\n     * @dev Computes the next vesting schedule identifier for a given holder address.\n     */\n    function computeNextVestingScheduleIdForHolder(\n        address holder\n    ) public view returns (bytes32) {\n        return\n            computeVestingScheduleIdForAddressAndIndex(\n                holder,\n                holdersVestingCount[holder]\n            );\n    }\n\n    /**\n     * @dev Returns the last vesting schedule for a given holder address.\n     */\n    function getLastVestingScheduleForHolder(\n        address holder\n    ) external view returns (VestingSchedule memory) {\n        return\n            vestingSchedules[\n                computeVestingScheduleIdForAddressAndIndex(\n                    holder,\n                    holdersVestingCount[holder] - 1\n                )\n            ];\n    }\n\n    /**\n     * @dev Computes the vesting schedule identifier for an address and an index.\n     */\n    function computeVestingScheduleIdForAddressAndIndex(\n        address holder,\n        uint256 index\n    ) public pure returns (bytes32) {\n        return keccak256(abi.encodePacked(holder, index));\n    }\n\n    /**\n     * @dev Computes the releasable amount of tokens for a vesting schedule.\n     * @return the amount of releasable tokens\n     */\n    function _computeReleasableAmount(\n        VestingSchedule memory vestingSchedule\n    ) internal view returns (uint256) {\n        // Retrieve the current time.\n        uint256 currentTime = getCurrentTime();\n        // If the current time is before the cliff, no tokens are releasable.\n        if ((currentTime < vestingSchedule.cliff) || vestingSchedule.auditInvalidated) {\n            return 0;\n        }\n        // If the current time is after the vesting period, all tokens are releasable,\n        // minus the amount already released.\n        else if (\n            currentTime >= vestingSchedule.start + vestingSchedule.duration\n        ) {\n            return vestingSchedule.amountTotal - vestingSchedule.released;\n        }\n        // Otherwise, some tokens are releasable.\n        else {\n            // Compute the number of full vesting periods that have elapsed.\n            uint256 timeFromStart = currentTime - vestingSchedule.start;\n            uint256 secondsPerSlice = vestingSchedule.slicePeriodSeconds;\n            uint256 vestedSlicePeriods = timeFromStart / secondsPerSlice;\n            uint256 vestedSeconds = vestedSlicePeriods * secondsPerSlice;\n            // Compute the amount of tokens that are vested.\n            uint256 vestedAmount = (vestingSchedule.amountTotal *\n                vestedSeconds) / vestingSchedule.duration;\n            // Subtract the amount already released and return.\n            return vestedAmount - vestingSchedule.released;\n        }\n    }\n\n    /**\n     * @dev Returns the current time.\n     * @return the current timestamp in seconds.\n     */\n    function getCurrentTime() internal view virtual returns (uint256) {\n        return block.timestamp;\n    }\n}\n",
  "sourcePath": "/Users/blakehatch/WebstormProjects/Bevor-Contracts/contracts/AuditPayment.sol",
  "compiler": {
    "name": "solc",
    "version": "0.8.20+commit.a1b79de6.Emscripten.clang"
  },
  "schemaVersion": "3.4.14",
  "updatedAt": "2023-06-10T03:47:55.557Z",
  "devdoc": {
    "kind": "dev",
    "methods": {
      "computeNextVestingScheduleIdForHolder(address)": {
        "details": "Computes the next vesting schedule identifier for a given holder address."
      },
      "computeReleasableAmount(bytes32)": {
        "returns": {
          "_0": "the vested amount"
        }
      },
      "computeVestingScheduleIdForAddressAndIndex(address,uint256)": {
        "details": "Computes the vesting schedule identifier for an address and an index."
      },
      "constructor": {
        "details": "Creates a vesting contract.",
        "params": {
          "dao_": "address of the Bevor DAO that controls"
        }
      },
      "createVestingSchedule(address,uint256,uint256,uint256,uint256,uint256,address,uint256)": {
        "params": {
          "_auditor": "address of the beneficiary to whom vested tokens are transferred",
          "_cliff": "duration in seconds of the cliff in which tokens will begin to vest",
          "_duration": "duration in seconds of the period in which the tokens will vest",
          "_start": "start time of the vesting period"
        }
      },
      "getLastVestingScheduleForHolder(address)": {
        "details": "Returns the last vesting schedule for a given holder address."
      },
      "getVestingIdAtIndex(uint256)": {
        "details": "Returns the vesting schedule id at the given index.",
        "returns": {
          "_0": "the vesting id"
        }
      },
      "getVestingSchedule(bytes32)": {
        "returns": {
          "_0": "the vesting schedule structure information"
        }
      },
      "getVestingScheduleByAddressAndIndex(address,uint256)": {
        "returns": {
          "_0": "the vesting schedule structure information"
        }
      },
      "getVestingSchedulesCount()": {
        "details": "Returns the number of vesting schedules managed by this contract.",
        "returns": {
          "_0": "the number of vesting schedules"
        }
      },
      "getVestingSchedulesCountByBeneficiary(address)": {
        "details": "Returns the number of vesting schedules associated to a beneficiary.",
        "returns": {
          "_0": "the number of vesting schedules"
        }
      },
      "invalidateAudit(bytes32)": {
        "params": {
          "vestingScheduleId": "the vesting schedule identifier"
        }
      },
      "owner()": {
        "details": "Returns the address of the current owner."
      },
      "renounceOwnership()": {
        "details": "Leaves the contract without owner. It will not be possible to call `onlyOwner` functions. Can only be called by the current owner. NOTE: Renouncing ownership will leave the contract without an owner, thereby disabling any functionality that is only available to the owner."
      },
      "transferOwnership(address)": {
        "details": "Transfers ownership of the contract to a new account (`newOwner`). Can only be called by the current owner."
      },
      "withdraw(bytes32)": {
        "params": {
          "vestingScheduleId": "the vesting schedule identifier"
        }
      }
    },
    "title": "AuditPayment",
    "version": 1
  },
  "userdoc": {
    "kind": "user",
    "methods": {
      "computeReleasableAmount(bytes32)": {
        "notice": "Computes the vested amount of tokens for the given vesting schedule identifier."
      },
      "createVestingSchedule(address,uint256,uint256,uint256,uint256,uint256,address,uint256)": {
        "notice": "Creates a new vesting schedule for a beneficiary."
      },
      "getVestingSchedule(bytes32)": {
        "notice": "Returns the vesting schedule information for a given identifier."
      },
      "getVestingScheduleByAddressAndIndex(address,uint256)": {
        "notice": "Returns the vesting schedule information for a given holder and index."
      },
      "invalidateAudit(bytes32)": {
        "notice": "Revokes the vesting schedule for given identifier."
      },
      "withdraw(bytes32)": {
        "notice": "Release vested amount of tokens."
      }
    },
    "version": 1
  }
}