{
  "contractName": "AutomatedAuditPayment",
  "abi": [
    {
      "inputs": [
        {
          "internalType": "address",
          "name": "_auditor",
          "type": "address"
        },
        {
          "internalType": "address",
          "name": "_usdcToken",
          "type": "address"
        },
        {
          "internalType": "address",
          "name": "_priceFeed",
          "type": "address"
        },
        {
          "internalType": "uint256",
          "name": "_vestingStartTime",
          "type": "uint256"
        },
        {
          "internalType": "uint256",
          "name": "_vestingPeriod",
          "type": "uint256"
        }
      ],
      "stateMutability": "nonpayable",
      "type": "constructor"
    },
    {
      "anonymous": false,
      "inputs": [
        {
          "indexed": false,
          "internalType": "uint256",
          "name": "amount",
          "type": "uint256"
        }
      ],
      "name": "PaymentReceived",
      "type": "event"
    },
    {
      "anonymous": false,
      "inputs": [
        {
          "indexed": false,
          "internalType": "uint256",
          "name": "amount",
          "type": "uint256"
        }
      ],
      "name": "PaymentReleased",
      "type": "event"
    },
    {
      "inputs": [],
      "name": "auditor",
      "outputs": [
        {
          "internalType": "address",
          "name": "",
          "type": "address"
        }
      ],
      "stateMutability": "view",
      "type": "function"
    },
    {
      "inputs": [],
      "name": "owner",
      "outputs": [
        {
          "internalType": "address",
          "name": "",
          "type": "address"
        }
      ],
      "stateMutability": "view",
      "type": "function"
    },
    {
      "inputs": [],
      "name": "priceFeed",
      "outputs": [
        {
          "internalType": "contract AggregatorV3Interface",
          "name": "",
          "type": "address"
        }
      ],
      "stateMutability": "view",
      "type": "function"
    },
    {
      "inputs": [],
      "name": "releasedAmount",
      "outputs": [
        {
          "internalType": "uint256",
          "name": "",
          "type": "uint256"
        }
      ],
      "stateMutability": "view",
      "type": "function"
    },
    {
      "inputs": [],
      "name": "totalAmount",
      "outputs": [
        {
          "internalType": "uint256",
          "name": "",
          "type": "uint256"
        }
      ],
      "stateMutability": "view",
      "type": "function"
    },
    {
      "inputs": [],
      "name": "usdcToken",
      "outputs": [
        {
          "internalType": "contract IERC20",
          "name": "",
          "type": "address"
        }
      ],
      "stateMutability": "view",
      "type": "function"
    },
    {
      "inputs": [],
      "name": "vestingPeriod",
      "outputs": [
        {
          "internalType": "uint256",
          "name": "",
          "type": "uint256"
        }
      ],
      "stateMutability": "view",
      "type": "function"
    },
    {
      "inputs": [],
      "name": "vestingStartTime",
      "outputs": [
        {
          "internalType": "uint256",
          "name": "",
          "type": "uint256"
        }
      ],
      "stateMutability": "view",
      "type": "function"
    },
    {
      "inputs": [
        {
          "internalType": "uint256",
          "name": "_amount",
          "type": "uint256"
        }
      ],
      "name": "receivePayment",
      "outputs": [],
      "stateMutability": "nonpayable",
      "type": "function"
    },
    {
      "inputs": [],
      "name": "releasePayment",
      "outputs": [],
      "stateMutability": "nonpayable",
      "type": "function"
    },
    {
      "inputs": [],
      "name": "calculateVestedAmount",
      "outputs": [
        {
          "internalType": "uint256",
          "name": "",
          "type": "uint256"
        }
      ],
      "stateMutability": "view",
      "type": "function"
    },
    {
      "inputs": [
        {
          "internalType": "uint256",
          "name": "_newVestingPeriod",
          "type": "uint256"
        }
      ],
      "name": "adjustVestingPeriod",
      "outputs": [],
      "stateMutability": "nonpayable",
      "type": "function"
    },
    {
      "inputs": [],
      "name": "getUSDCPrice",
      "outputs": [
        {
          "internalType": "uint256",
          "name": "",
          "type": "uint256"
        }
      ],
      "stateMutability": "view",
      "type": "function"
    },
    {
      "inputs": [],
      "name": "calculateVestedAmountAutomatically",
      "outputs": [],
      "stateMutability": "nonpayable",
      "type": "function"
    }
  ],
  "bytecode": "0x6080346100bc57601f610c2d38819003918201601f19168301916001600160401b038311848410176100c05780849260a0946040528339810103126100bc57610047816100d4565b90610054602082016100d4565b91610061604083016100d4565b92608060608401519301519360018060a01b03199233845f5416175f5560018060a01b0392838092168560015416176001551683600654161760065516906007541617600755600255600355604051610b4490816100e98239f35b5f80fd5b634e487b7160e01b5f52604160045260245ffd5b51906001600160a01b03821682036100bc5756fe608060409080825260049182361015610016575f80fd5b5f91823560e01c90816311eac855146107975750806319cb57ef146105b35780631a39d8ef146105955780633ec045a61461056d57806345d30a171461054f5780634ad517bc146105335780637313ee5a14610515578063741bef1a146104ed5780638da5cb5b146104c657806393fc1762146103e4578063a8660a78146103c6578063cacf5a33146103a3578063d116c8c4146102495763e2eab483146100bc575f80fd5b3461024557602090816003193601126102415782546001600160a01b039480359291861633036101f057821561019e578385966006541660648451809881936323b872dd60e01b835233878401523060248401528860448401525af1948515610194577f1a07f76ee25d689f09f51951e5b4594bb2e440b7935111a41ba06afeb50ff01495610152918891610167575b5061080e565b61015d838254610851565b905551908152a180f35b6101879150863d881161018d575b61017f81836107bc565b8101906107f2565b5f61014c565b503d610175565b82513d88823e3d90fd5b83608492519162461bcd60e51b8352820152602860248201527f5061796d656e7420616d6f756e74206d7573742062652067726561746572207460448201526768616e207a65726f60c01b6064820152fd5b83608492519162461bcd60e51b8352820152602760248201527f4f6e6c7920636f6e7472616374206f776e65722063616e2072656365697665206044820152661c185e5b595b9d60ca1b6064820152fd5b8280fd5b5080fd5b5082346102415782600319360112610241576001546001600160a01b039190821633819003610360576102b6926102ed9260209261028b600254421015610872565b876102946109d1565b936102a260055480966108be565b978880966102b18215156108cb565b610851565b600555600654169288519687958694859363a9059cbb60e01b8552840160209093929193604081019460018060a01b031681520152565b03925af1908115610353579261032e602093927f7094d01aa39ef767229e67850ef530b588b0dc1576b827e94f51a1f063007434958791610336575061080e565b51908152a180f35b61034d9150853d811161018d5761017f81836107bc565b8761014c565b50505051903d90823e3d90fd5b835162461bcd60e51b8152602081840181905260248201527f4f6e6c792061756469746f722063616e2072656c65617365207061796d656e746044820152606490fd5b50346102455781600319360112610245576020906103bf6109d1565b9051908152f35b50346102455781600319360112610245576020906002549051908152f35b508290346102415760203660031901126102415782546001600160a01b031633036104695760025442101561041b57503560035580f35b906020608492519162461bcd60e51b8352820152602260248201527f56657374696e6720706572696f642068617320616c7265616479207374617274604482015261195960f21b6064820152fd5b906020608492519162461bcd60e51b8352820152603160248201527f4f6e6c7920636f6e7472616374206f776e65722063616e2061646a75737420746044820152701a19481d995cdd1a5b99c81c195c9a5bd9607a1b6064820152fd5b5034610245578160031936011261024557905490516001600160a01b039091168152602090f35b503461024557816003193601126102455760075490516001600160a01b039091168152602090f35b50346102455781600319360112610245576020906003549051908152f35b50346102455781600319360112610245576020906103bf610a3a565b50346102455781600319360112610245576020906005549051908152f35b503461024557816003193601126102455760015490516001600160a01b039091168152602090f35b50823461024157826003193601126102415760209250549051908152f35b5082346102415782600319360112610241576105e66002546105d781421015610872565b6105df610a3a565b50426108be565b6105fe6105f5835492836109a0565b600354906109b3565b9080821161078f575b5061062561061860055480936108be565b80926102b18215156108cb565b60055560065483516370a0823160e01b815230818501526020936001600160a01b039283169290918581602481875afa80156107855785918991610750575b50106106ff57600154865163a9059cbb60e01b815291166001600160a01b03169181019182526020820184905291849183919082908990829060400103925af19081156106f5577f7094d01aa39ef767229e67850ef530b588b0dc1576b827e94f51a1f063007434949161032e9187916106de575061080e565b61034d9150853d871161018d5761017f81836107bc565b84513d87823e3d90fd5b855162461bcd60e51b8152808301869052602560248201527f496e73756666696369656e7420555344432062616c616e636520696e20636f6e6044820152641d1c9858dd60da1b6064820152608490fd5b809250878092503d831161077e575b61076981836107bc565b8101031261077a5784905189610664565b8780fd5b503d61075f565b87513d8a823e3d90fd5b905084610607565b8390346102455781600319360112610245576006546001600160a01b03168152602090f35b90601f8019910116810190811067ffffffffffffffff8211176107de57604052565b634e487b7160e01b5f52604160045260245ffd5b9081602091031261080a5751801515810361080a5790565b5f80fd5b1561081557565b60405162461bcd60e51b81526020600482015260146024820152731554d110c81d1c985b9cd9995c8819985a5b195960621b6044820152606490fd5b9190820180921161085e57565b634e487b7160e01b5f52601160045260245ffd5b1561087957565b60405162461bcd60e51b815260206004820152601e60248201527f56657374696e6720706572696f6420686173206e6f74207374617274656400006044820152606490fd5b9190820391821161085e57565b156108d257565b60405162461bcd60e51b815260206004820152601e60248201527f4e6f2066756e647320617661696c61626c6520666f722072656c6561736500006044820152606490fd5b801561099b5780806001146109945760021461098e576001908161013382101682600b8310161761098657906002815b80821161095e575050815f1904811161085e570290565b9092805f1904811161085e5781841661097d575b800292811c90610947565b80920291610972565b600291500a90565b50600490565b5050600190565b505f90565b8181029291811591840414171561085e57565b81156109bd570490565b634e487b7160e01b5f52601260045260245ffd5b6002546003546109e18183610851565b42106109ef57505060045490565b610a1a610a14610a02610a2094426108be565b610a0e60045491610917565b906109a0565b91610917565b906109b3565b90565b519069ffffffffffffffffffff8216820361080a57565b600754604051633fabe5a360e21b81529060a090829060049082906001600160a01b03165afa908115610b03575f91610ab4575b505f811315610a7a5790565b60405162461bcd60e51b8152602060048201526012602482015271125b9d985b1a59081c1c9a58d9481999595960721b6044820152606490fd5b9060a0823d8211610afb575b81610acd60a093836107bc565b81010312610af85750610adf81610a23565b50610af1608060208301519201610a23565b505f610a6e565b80fd5b3d9150610ac0565b6040513d5f823e3d90fdfea2646970667358221220071467495b114d26241b5a77efee19974a13a18c354b0f4a06850f8f0fce0d8d64736f6c63430008140033",
  "immutableReferences": {},
  "source": "// SPDX-License-Identifier: MIT\npragma solidity ^0.8.0;\n\nimport \"@openzeppelin/contracts/token/ERC20/IERC20.sol\";\nimport \"@chainlink/contracts/src/v0.8/interfaces/AggregatorV3Interface.sol\";\n\ncontract AutomatedAuditPayment {\n    address public owner;\n    address public auditor;\n    uint256 public vestingStartTime;\n    uint256 public vestingPeriod;\n    uint256 public totalAmount;\n    uint256 public releasedAmount;\n    IERC20 public usdcToken;\n    AggregatorV3Interface public priceFeed;\n\n    event PaymentReceived(uint256 amount);\n    event PaymentReleased(uint256 amount);\n\n    constructor(\n        address _auditor,\n        address _usdcToken,\n        address _priceFeed,\n        uint256 _vestingStartTime,\n        uint256 _vestingPeriod\n    ) {\n        owner = msg.sender;\n        auditor = _auditor;\n        usdcToken = IERC20(_usdcToken);\n        priceFeed = AggregatorV3Interface(_priceFeed);\n        vestingStartTime = _vestingStartTime;\n        vestingPeriod = _vestingPeriod;\n    }\n\n    function receivePayment(uint256 _amount) external {\n        require(msg.sender == owner, \"Only contract owner can receive payment\");\n        require(_amount > 0, \"Payment amount must be greater than zero\");\n        require(\n            usdcToken.transferFrom(msg.sender, address(this), _amount),\n            \"USDC transfer failed\"\n        );\n\n        totalAmount += _amount;\n        emit PaymentReceived(_amount);\n    }\n\n    function releasePayment() external {\n        require(msg.sender == auditor, \"Only auditor can release payment\");\n        require(block.timestamp >= vestingStartTime, \"Vesting period has not started\");\n\n        uint256 vestedAmount = calculateVestedAmount();\n        uint256 amountToRelease = vestedAmount - releasedAmount;\n        require(amountToRelease > 0, \"No funds available for release\");\n\n        releasedAmount += amountToRelease;\n        require(\n            usdcToken.transfer(auditor, amountToRelease),\n            \"USDC transfer failed\"\n        );\n\n        emit PaymentReleased(amountToRelease);\n    }\n\n    function calculateVestedAmount() public view returns (uint256) {\n        if (block.timestamp >= vestingStartTime + vestingPeriod) {\n            return totalAmount;\n        } else {\n            uint256 elapsedTime = block.timestamp - vestingStartTime;\n            uint256 vestedAmount = (totalAmount * elapsedTime**2) / (vestingPeriod**2);\n            return vestedAmount;\n        }\n    }\n\n    function adjustVestingPeriod(uint256 _newVestingPeriod) external {\n        require(msg.sender == owner, \"Only contract owner can adjust the vesting period\");\n        require(block.timestamp < vestingStartTime, \"Vesting period has already started\");\n\n        vestingPeriod = _newVestingPeriod;\n    }\n\n    function getUSDCPrice() public view returns (uint256) {\n        (, int256 price, , , ) = priceFeed.latestRoundData();\n        require(price > 0, \"Invalid price feed\");\n        return uint256(price);\n    }\n\n    function calculateVestedAmountAutomatically() external {\n        require(block.timestamp >= vestingStartTime, \"Vesting period has not started\");\n\n        uint256 usdcPrice = getUSDCPrice();\n        uint256 elapsedSeconds = block.timestamp - vestingStartTime;\n        uint256 vestedAmount = (totalAmount * elapsedSeconds) / vestingPeriod;\n\n        if (vestedAmount > totalAmount) {\n            vestedAmount = totalAmount;\n        }\n\n        uint256 amountToRelease = vestedAmount - releasedAmount;\n        require(amountToRelease > 0, \"No funds available for release\");\n\n        releasedAmount += amountToRelease;\n\n        uint256 usdcBalance = usdcToken.balanceOf(address(this));\n        require(usdcBalance >= amountToRelease, \"Insufficient USDC balance in contract\");\n\n        require(\n            usdcToken.transfer(auditor, amountToRelease),\n            \"USDC transfer failed\"\n        );\n\n        emit PaymentReleased(amountToRelease);\n    }\n}\n",
  "sourcePath": "/Users/blakehatch/WebstormProjects/Bevor-Contracts/contracts/AutomatedAuditPayment.sol",
  "compiler": {
    "name": "solc",
    "version": "0.8.20+commit.a1b79de6.Emscripten.clang"
  },
  "schemaVersion": "3.4.14",
  "updatedAt": "2023-06-10T03:47:55.559Z",
  "devdoc": {
    "kind": "dev",
    "methods": {},
    "version": 1
  },
  "userdoc": {
    "kind": "user",
    "methods": {},
    "version": 1
  }
}