{
  "contractName": "BevorDAO",
  "abi": [
    {
      "inputs": [
        {
          "internalType": "contract IVotes",
          "name": "_token",
          "type": "address"
        },
        {
          "internalType": "contract TimelockController",
          "name": "_timelock",
          "type": "address"
        }
      ],
      "stateMutability": "nonpayable",
      "type": "constructor"
    },
    {
      "inputs": [],
      "name": "Empty",
      "type": "error"
    },
    {
      "inputs": [],
      "name": "InvalidShortString",
      "type": "error"
    },
    {
      "inputs": [
        {
          "internalType": "string",
          "name": "str",
          "type": "string"
        }
      ],
      "name": "StringTooLong",
      "type": "error"
    },
    {
      "anonymous": false,
      "inputs": [],
      "name": "EIP712DomainChanged",
      "type": "event"
    },
    {
      "anonymous": false,
      "inputs": [
        {
          "indexed": false,
          "internalType": "uint256",
          "name": "proposalId",
          "type": "uint256"
        }
      ],
      "name": "ProposalCanceled",
      "type": "event"
    },
    {
      "anonymous": false,
      "inputs": [
        {
          "indexed": false,
          "internalType": "uint256",
          "name": "proposalId",
          "type": "uint256"
        },
        {
          "indexed": false,
          "internalType": "address",
          "name": "proposer",
          "type": "address"
        },
        {
          "indexed": false,
          "internalType": "address[]",
          "name": "targets",
          "type": "address[]"
        },
        {
          "indexed": false,
          "internalType": "uint256[]",
          "name": "values",
          "type": "uint256[]"
        },
        {
          "indexed": false,
          "internalType": "string[]",
          "name": "signatures",
          "type": "string[]"
        },
        {
          "indexed": false,
          "internalType": "bytes[]",
          "name": "calldatas",
          "type": "bytes[]"
        },
        {
          "indexed": false,
          "internalType": "uint256",
          "name": "voteStart",
          "type": "uint256"
        },
        {
          "indexed": false,
          "internalType": "uint256",
          "name": "voteEnd",
          "type": "uint256"
        },
        {
          "indexed": false,
          "internalType": "string",
          "name": "description",
          "type": "string"
        }
      ],
      "name": "ProposalCreated",
      "type": "event"
    },
    {
      "anonymous": false,
      "inputs": [
        {
          "indexed": false,
          "internalType": "uint256",
          "name": "proposalId",
          "type": "uint256"
        }
      ],
      "name": "ProposalExecuted",
      "type": "event"
    },
    {
      "anonymous": false,
      "inputs": [
        {
          "indexed": false,
          "internalType": "uint256",
          "name": "proposalId",
          "type": "uint256"
        },
        {
          "indexed": false,
          "internalType": "uint256",
          "name": "eta",
          "type": "uint256"
        }
      ],
      "name": "ProposalQueued",
      "type": "event"
    },
    {
      "anonymous": false,
      "inputs": [
        {
          "indexed": false,
          "internalType": "uint256",
          "name": "oldProposalThreshold",
          "type": "uint256"
        },
        {
          "indexed": false,
          "internalType": "uint256",
          "name": "newProposalThreshold",
          "type": "uint256"
        }
      ],
      "name": "ProposalThresholdSet",
      "type": "event"
    },
    {
      "anonymous": false,
      "inputs": [
        {
          "indexed": false,
          "internalType": "uint256",
          "name": "oldQuorumNumerator",
          "type": "uint256"
        },
        {
          "indexed": false,
          "internalType": "uint256",
          "name": "newQuorumNumerator",
          "type": "uint256"
        }
      ],
      "name": "QuorumNumeratorUpdated",
      "type": "event"
    },
    {
      "anonymous": false,
      "inputs": [
        {
          "indexed": false,
          "internalType": "address",
          "name": "oldTimelock",
          "type": "address"
        },
        {
          "indexed": false,
          "internalType": "address",
          "name": "newTimelock",
          "type": "address"
        }
      ],
      "name": "TimelockChange",
      "type": "event"
    },
    {
      "anonymous": false,
      "inputs": [
        {
          "indexed": true,
          "internalType": "address",
          "name": "voter",
          "type": "address"
        },
        {
          "indexed": false,
          "internalType": "uint256",
          "name": "proposalId",
          "type": "uint256"
        },
        {
          "indexed": false,
          "internalType": "uint8",
          "name": "support",
          "type": "uint8"
        },
        {
          "indexed": false,
          "internalType": "uint256",
          "name": "weight",
          "type": "uint256"
        },
        {
          "indexed": false,
          "internalType": "string",
          "name": "reason",
          "type": "string"
        }
      ],
      "name": "VoteCast",
      "type": "event"
    },
    {
      "anonymous": false,
      "inputs": [
        {
          "indexed": true,
          "internalType": "address",
          "name": "voter",
          "type": "address"
        },
        {
          "indexed": false,
          "internalType": "uint256",
          "name": "proposalId",
          "type": "uint256"
        },
        {
          "indexed": false,
          "internalType": "uint8",
          "name": "support",
          "type": "uint8"
        },
        {
          "indexed": false,
          "internalType": "uint256",
          "name": "weight",
          "type": "uint256"
        },
        {
          "indexed": false,
          "internalType": "string",
          "name": "reason",
          "type": "string"
        },
        {
          "indexed": false,
          "internalType": "bytes",
          "name": "params",
          "type": "bytes"
        }
      ],
      "name": "VoteCastWithParams",
      "type": "event"
    },
    {
      "anonymous": false,
      "inputs": [
        {
          "indexed": false,
          "internalType": "uint256",
          "name": "oldVotingDelay",
          "type": "uint256"
        },
        {
          "indexed": false,
          "internalType": "uint256",
          "name": "newVotingDelay",
          "type": "uint256"
        }
      ],
      "name": "VotingDelaySet",
      "type": "event"
    },
    {
      "anonymous": false,
      "inputs": [
        {
          "indexed": false,
          "internalType": "uint256",
          "name": "oldVotingPeriod",
          "type": "uint256"
        },
        {
          "indexed": false,
          "internalType": "uint256",
          "name": "newVotingPeriod",
          "type": "uint256"
        }
      ],
      "name": "VotingPeriodSet",
      "type": "event"
    },
    {
      "inputs": [],
      "name": "BALLOT_TYPEHASH",
      "outputs": [
        {
          "internalType": "bytes32",
          "name": "",
          "type": "bytes32"
        }
      ],
      "stateMutability": "view",
      "type": "function"
    },
    {
      "inputs": [],
      "name": "CLOCK_MODE",
      "outputs": [
        {
          "internalType": "string",
          "name": "",
          "type": "string"
        }
      ],
      "stateMutability": "view",
      "type": "function"
    },
    {
      "inputs": [],
      "name": "COUNTING_MODE",
      "outputs": [
        {
          "internalType": "string",
          "name": "",
          "type": "string"
        }
      ],
      "stateMutability": "pure",
      "type": "function"
    },
    {
      "inputs": [],
      "name": "EXTENDED_BALLOT_TYPEHASH",
      "outputs": [
        {
          "internalType": "bytes32",
          "name": "",
          "type": "bytes32"
        }
      ],
      "stateMutability": "view",
      "type": "function"
    },
    {
      "inputs": [
        {
          "internalType": "address[]",
          "name": "targets",
          "type": "address[]"
        },
        {
          "internalType": "uint256[]",
          "name": "values",
          "type": "uint256[]"
        },
        {
          "internalType": "bytes[]",
          "name": "calldatas",
          "type": "bytes[]"
        },
        {
          "internalType": "bytes32",
          "name": "descriptionHash",
          "type": "bytes32"
        }
      ],
      "name": "cancel",
      "outputs": [
        {
          "internalType": "uint256",
          "name": "",
          "type": "uint256"
        }
      ],
      "stateMutability": "nonpayable",
      "type": "function"
    },
    {
      "inputs": [
        {
          "internalType": "uint256",
          "name": "proposalId",
          "type": "uint256"
        },
        {
          "internalType": "uint8",
          "name": "support",
          "type": "uint8"
        }
      ],
      "name": "castVote",
      "outputs": [
        {
          "internalType": "uint256",
          "name": "",
          "type": "uint256"
        }
      ],
      "stateMutability": "nonpayable",
      "type": "function"
    },
    {
      "inputs": [
        {
          "internalType": "uint256",
          "name": "proposalId",
          "type": "uint256"
        },
        {
          "internalType": "uint8",
          "name": "support",
          "type": "uint8"
        },
        {
          "internalType": "uint8",
          "name": "v",
          "type": "uint8"
        },
        {
          "internalType": "bytes32",
          "name": "r",
          "type": "bytes32"
        },
        {
          "internalType": "bytes32",
          "name": "s",
          "type": "bytes32"
        }
      ],
      "name": "castVoteBySig",
      "outputs": [
        {
          "internalType": "uint256",
          "name": "",
          "type": "uint256"
        }
      ],
      "stateMutability": "nonpayable",
      "type": "function"
    },
    {
      "inputs": [
        {
          "internalType": "uint256",
          "name": "proposalId",
          "type": "uint256"
        },
        {
          "internalType": "uint8",
          "name": "support",
          "type": "uint8"
        },
        {
          "internalType": "string",
          "name": "reason",
          "type": "string"
        }
      ],
      "name": "castVoteWithReason",
      "outputs": [
        {
          "internalType": "uint256",
          "name": "",
          "type": "uint256"
        }
      ],
      "stateMutability": "nonpayable",
      "type": "function"
    },
    {
      "inputs": [
        {
          "internalType": "uint256",
          "name": "proposalId",
          "type": "uint256"
        },
        {
          "internalType": "uint8",
          "name": "support",
          "type": "uint8"
        },
        {
          "internalType": "string",
          "name": "reason",
          "type": "string"
        },
        {
          "internalType": "bytes",
          "name": "params",
          "type": "bytes"
        }
      ],
      "name": "castVoteWithReasonAndParams",
      "outputs": [
        {
          "internalType": "uint256",
          "name": "",
          "type": "uint256"
        }
      ],
      "stateMutability": "nonpayable",
      "type": "function"
    },
    {
      "inputs": [
        {
          "internalType": "uint256",
          "name": "proposalId",
          "type": "uint256"
        },
        {
          "internalType": "uint8",
          "name": "support",
          "type": "uint8"
        },
        {
          "internalType": "string",
          "name": "reason",
          "type": "string"
        },
        {
          "internalType": "bytes",
          "name": "params",
          "type": "bytes"
        },
        {
          "internalType": "uint8",
          "name": "v",
          "type": "uint8"
        },
        {
          "internalType": "bytes32",
          "name": "r",
          "type": "bytes32"
        },
        {
          "internalType": "bytes32",
          "name": "s",
          "type": "bytes32"
        }
      ],
      "name": "castVoteWithReasonAndParamsBySig",
      "outputs": [
        {
          "internalType": "uint256",
          "name": "",
          "type": "uint256"
        }
      ],
      "stateMutability": "nonpayable",
      "type": "function"
    },
    {
      "inputs": [],
      "name": "clock",
      "outputs": [
        {
          "internalType": "uint48",
          "name": "",
          "type": "uint48"
        }
      ],
      "stateMutability": "view",
      "type": "function"
    },
    {
      "inputs": [],
      "name": "eip712Domain",
      "outputs": [
        {
          "internalType": "bytes1",
          "name": "fields",
          "type": "bytes1"
        },
        {
          "internalType": "string",
          "name": "name",
          "type": "string"
        },
        {
          "internalType": "string",
          "name": "version",
          "type": "string"
        },
        {
          "internalType": "uint256",
          "name": "chainId",
          "type": "uint256"
        },
        {
          "internalType": "address",
          "name": "verifyingContract",
          "type": "address"
        },
        {
          "internalType": "bytes32",
          "name": "salt",
          "type": "bytes32"
        },
        {
          "internalType": "uint256[]",
          "name": "extensions",
          "type": "uint256[]"
        }
      ],
      "stateMutability": "view",
      "type": "function"
    },
    {
      "inputs": [
        {
          "internalType": "address[]",
          "name": "targets",
          "type": "address[]"
        },
        {
          "internalType": "uint256[]",
          "name": "values",
          "type": "uint256[]"
        },
        {
          "internalType": "bytes[]",
          "name": "calldatas",
          "type": "bytes[]"
        },
        {
          "internalType": "bytes32",
          "name": "descriptionHash",
          "type": "bytes32"
        }
      ],
      "name": "execute",
      "outputs": [
        {
          "internalType": "uint256",
          "name": "",
          "type": "uint256"
        }
      ],
      "stateMutability": "payable",
      "type": "function"
    },
    {
      "inputs": [
        {
          "internalType": "address",
          "name": "account",
          "type": "address"
        },
        {
          "internalType": "uint256",
          "name": "timepoint",
          "type": "uint256"
        }
      ],
      "name": "getVotes",
      "outputs": [
        {
          "internalType": "uint256",
          "name": "",
          "type": "uint256"
        }
      ],
      "stateMutability": "view",
      "type": "function"
    },
    {
      "inputs": [
        {
          "internalType": "address",
          "name": "account",
          "type": "address"
        },
        {
          "internalType": "uint256",
          "name": "timepoint",
          "type": "uint256"
        },
        {
          "internalType": "bytes",
          "name": "params",
          "type": "bytes"
        }
      ],
      "name": "getVotesWithParams",
      "outputs": [
        {
          "internalType": "uint256",
          "name": "",
          "type": "uint256"
        }
      ],
      "stateMutability": "view",
      "type": "function"
    },
    {
      "inputs": [
        {
          "internalType": "uint256",
          "name": "proposalId",
          "type": "uint256"
        },
        {
          "internalType": "address",
          "name": "account",
          "type": "address"
        }
      ],
      "name": "hasVoted",
      "outputs": [
        {
          "internalType": "bool",
          "name": "",
          "type": "bool"
        }
      ],
      "stateMutability": "view",
      "type": "function"
    },
    {
      "inputs": [
        {
          "internalType": "address[]",
          "name": "targets",
          "type": "address[]"
        },
        {
          "internalType": "uint256[]",
          "name": "values",
          "type": "uint256[]"
        },
        {
          "internalType": "bytes[]",
          "name": "calldatas",
          "type": "bytes[]"
        },
        {
          "internalType": "bytes32",
          "name": "descriptionHash",
          "type": "bytes32"
        }
      ],
      "name": "hashProposal",
      "outputs": [
        {
          "internalType": "uint256",
          "name": "",
          "type": "uint256"
        }
      ],
      "stateMutability": "pure",
      "type": "function"
    },
    {
      "inputs": [],
      "name": "name",
      "outputs": [
        {
          "internalType": "string",
          "name": "",
          "type": "string"
        }
      ],
      "stateMutability": "view",
      "type": "function"
    },
    {
      "inputs": [
        {
          "internalType": "address",
          "name": "",
          "type": "address"
        },
        {
          "internalType": "address",
          "name": "",
          "type": "address"
        },
        {
          "internalType": "uint256[]",
          "name": "",
          "type": "uint256[]"
        },
        {
          "internalType": "uint256[]",
          "name": "",
          "type": "uint256[]"
        },
        {
          "internalType": "bytes",
          "name": "",
          "type": "bytes"
        }
      ],
      "name": "onERC1155BatchReceived",
      "outputs": [
        {
          "internalType": "bytes4",
          "name": "",
          "type": "bytes4"
        }
      ],
      "stateMutability": "nonpayable",
      "type": "function"
    },
    {
      "inputs": [
        {
          "internalType": "address",
          "name": "",
          "type": "address"
        },
        {
          "internalType": "address",
          "name": "",
          "type": "address"
        },
        {
          "internalType": "uint256",
          "name": "",
          "type": "uint256"
        },
        {
          "internalType": "uint256",
          "name": "",
          "type": "uint256"
        },
        {
          "internalType": "bytes",
          "name": "",
          "type": "bytes"
        }
      ],
      "name": "onERC1155Received",
      "outputs": [
        {
          "internalType": "bytes4",
          "name": "",
          "type": "bytes4"
        }
      ],
      "stateMutability": "nonpayable",
      "type": "function"
    },
    {
      "inputs": [
        {
          "internalType": "address",
          "name": "",
          "type": "address"
        },
        {
          "internalType": "address",
          "name": "",
          "type": "address"
        },
        {
          "internalType": "uint256",
          "name": "",
          "type": "uint256"
        },
        {
          "internalType": "bytes",
          "name": "",
          "type": "bytes"
        }
      ],
      "name": "onERC721Received",
      "outputs": [
        {
          "internalType": "bytes4",
          "name": "",
          "type": "bytes4"
        }
      ],
      "stateMutability": "nonpayable",
      "type": "function"
    },
    {
      "inputs": [
        {
          "internalType": "uint256",
          "name": "proposalId",
          "type": "uint256"
        }
      ],
      "name": "proposalDeadline",
      "outputs": [
        {
          "internalType": "uint256",
          "name": "",
          "type": "uint256"
        }
      ],
      "stateMutability": "view",
      "type": "function"
    },
    {
      "inputs": [
        {
          "internalType": "uint256",
          "name": "proposalId",
          "type": "uint256"
        }
      ],
      "name": "proposalEta",
      "outputs": [
        {
          "internalType": "uint256",
          "name": "",
          "type": "uint256"
        }
      ],
      "stateMutability": "view",
      "type": "function"
    },
    {
      "inputs": [
        {
          "internalType": "uint256",
          "name": "proposalId",
          "type": "uint256"
        }
      ],
      "name": "proposalProposer",
      "outputs": [
        {
          "internalType": "address",
          "name": "",
          "type": "address"
        }
      ],
      "stateMutability": "view",
      "type": "function"
    },
    {
      "inputs": [
        {
          "internalType": "uint256",
          "name": "proposalId",
          "type": "uint256"
        }
      ],
      "name": "proposalSnapshot",
      "outputs": [
        {
          "internalType": "uint256",
          "name": "",
          "type": "uint256"
        }
      ],
      "stateMutability": "view",
      "type": "function"
    },
    {
      "inputs": [
        {
          "internalType": "uint256",
          "name": "proposalId",
          "type": "uint256"
        }
      ],
      "name": "proposalVotes",
      "outputs": [
        {
          "internalType": "uint256",
          "name": "againstVotes",
          "type": "uint256"
        },
        {
          "internalType": "uint256",
          "name": "forVotes",
          "type": "uint256"
        },
        {
          "internalType": "uint256",
          "name": "abstainVotes",
          "type": "uint256"
        }
      ],
      "stateMutability": "view",
      "type": "function"
    },
    {
      "inputs": [
        {
          "internalType": "address[]",
          "name": "targets",
          "type": "address[]"
        },
        {
          "internalType": "uint256[]",
          "name": "values",
          "type": "uint256[]"
        },
        {
          "internalType": "bytes[]",
          "name": "calldatas",
          "type": "bytes[]"
        },
        {
          "internalType": "bytes32",
          "name": "descriptionHash",
          "type": "bytes32"
        }
      ],
      "name": "queue",
      "outputs": [
        {
          "internalType": "uint256",
          "name": "",
          "type": "uint256"
        }
      ],
      "stateMutability": "nonpayable",
      "type": "function"
    },
    {
      "inputs": [],
      "name": "quorumDenominator",
      "outputs": [
        {
          "internalType": "uint256",
          "name": "",
          "type": "uint256"
        }
      ],
      "stateMutability": "view",
      "type": "function"
    },
    {
      "inputs": [
        {
          "internalType": "uint256",
          "name": "timepoint",
          "type": "uint256"
        }
      ],
      "name": "quorumNumerator",
      "outputs": [
        {
          "internalType": "uint256",
          "name": "",
          "type": "uint256"
        }
      ],
      "stateMutability": "view",
      "type": "function"
    },
    {
      "inputs": [],
      "name": "quorumNumerator",
      "outputs": [
        {
          "internalType": "uint256",
          "name": "",
          "type": "uint256"
        }
      ],
      "stateMutability": "view",
      "type": "function"
    },
    {
      "inputs": [
        {
          "internalType": "address",
          "name": "target",
          "type": "address"
        },
        {
          "internalType": "uint256",
          "name": "value",
          "type": "uint256"
        },
        {
          "internalType": "bytes",
          "name": "data",
          "type": "bytes"
        }
      ],
      "name": "relay",
      "outputs": [],
      "stateMutability": "payable",
      "type": "function"
    },
    {
      "inputs": [
        {
          "internalType": "uint256",
          "name": "newProposalThreshold",
          "type": "uint256"
        }
      ],
      "name": "setProposalThreshold",
      "outputs": [],
      "stateMutability": "nonpayable",
      "type": "function"
    },
    {
      "inputs": [
        {
          "internalType": "uint256",
          "name": "newVotingDelay",
          "type": "uint256"
        }
      ],
      "name": "setVotingDelay",
      "outputs": [],
      "stateMutability": "nonpayable",
      "type": "function"
    },
    {
      "inputs": [
        {
          "internalType": "uint256",
          "name": "newVotingPeriod",
          "type": "uint256"
        }
      ],
      "name": "setVotingPeriod",
      "outputs": [],
      "stateMutability": "nonpayable",
      "type": "function"
    },
    {
      "inputs": [],
      "name": "timelock",
      "outputs": [
        {
          "internalType": "address",
          "name": "",
          "type": "address"
        }
      ],
      "stateMutability": "view",
      "type": "function"
    },
    {
      "inputs": [],
      "name": "token",
      "outputs": [
        {
          "internalType": "contract IERC5805",
          "name": "",
          "type": "address"
        }
      ],
      "stateMutability": "view",
      "type": "function"
    },
    {
      "inputs": [
        {
          "internalType": "uint256",
          "name": "newQuorumNumerator",
          "type": "uint256"
        }
      ],
      "name": "updateQuorumNumerator",
      "outputs": [],
      "stateMutability": "nonpayable",
      "type": "function"
    },
    {
      "inputs": [
        {
          "internalType": "contract TimelockController",
          "name": "newTimelock",
          "type": "address"
        }
      ],
      "name": "updateTimelock",
      "outputs": [],
      "stateMutability": "nonpayable",
      "type": "function"
    },
    {
      "inputs": [],
      "name": "version",
      "outputs": [
        {
          "internalType": "string",
          "name": "",
          "type": "string"
        }
      ],
      "stateMutability": "view",
      "type": "function"
    },
    {
      "stateMutability": "payable",
      "type": "receive"
    },
    {
      "inputs": [],
      "name": "votingDelay",
      "outputs": [
        {
          "internalType": "uint256",
          "name": "",
          "type": "uint256"
        }
      ],
      "stateMutability": "view",
      "type": "function"
    },
    {
      "inputs": [],
      "name": "votingPeriod",
      "outputs": [
        {
          "internalType": "uint256",
          "name": "",
          "type": "uint256"
        }
      ],
      "stateMutability": "view",
      "type": "function"
    },
    {
      "inputs": [
        {
          "internalType": "uint256",
          "name": "blockNumber",
          "type": "uint256"
        }
      ],
      "name": "quorum",
      "outputs": [
        {
          "internalType": "uint256",
          "name": "",
          "type": "uint256"
        }
      ],
      "stateMutability": "view",
      "type": "function"
    },
    {
      "inputs": [
        {
          "internalType": "uint256",
          "name": "proposalId",
          "type": "uint256"
        }
      ],
      "name": "state",
      "outputs": [
        {
          "internalType": "enum IGovernor.ProposalState",
          "name": "",
          "type": "uint8"
        }
      ],
      "stateMutability": "view",
      "type": "function"
    },
    {
      "inputs": [
        {
          "internalType": "address[]",
          "name": "targets",
          "type": "address[]"
        },
        {
          "internalType": "uint256[]",
          "name": "values",
          "type": "uint256[]"
        },
        {
          "internalType": "bytes[]",
          "name": "calldatas",
          "type": "bytes[]"
        },
        {
          "internalType": "string",
          "name": "description",
          "type": "string"
        }
      ],
      "name": "propose",
      "outputs": [
        {
          "internalType": "uint256",
          "name": "",
          "type": "uint256"
        }
      ],
      "stateMutability": "nonpayable",
      "type": "function"
    },
    {
      "inputs": [],
      "name": "proposalThreshold",
      "outputs": [
        {
          "internalType": "uint256",
          "name": "",
          "type": "uint256"
        }
      ],
      "stateMutability": "view",
      "type": "function"
    },
    {
      "inputs": [
        {
          "internalType": "bytes4",
          "name": "interfaceId",
          "type": "bytes4"
        }
      ],
      "name": "supportsInterface",
      "outputs": [
        {
          "internalType": "bool",
          "name": "",
          "type": "bool"
        }
      ],
      "stateMutability": "view",
      "type": "function"
    }
  ],
  "bytecode": "0x61018060405234620000b457620000206200001962000151565b90620001c5565b604051613e6d908162000dd8823960805181612e8e015260a05181612f43015260c05181612e58015260e05181612edd01526101005181612f03015261012051816114e50152610140518161151101526101605181818161164701528181611c3601528181611d9401528181611e2f0152818161214801528181612682015281816127570152818161284d01526136b10152f35b5f80fd5b634e487b7160e01b5f52604160045260245ffd5b604081019081106001600160401b03821117620000e857604052565b620000b8565b60c081019081106001600160401b03821117620000e857604052565b601f909101601f19168101906001600160401b03821190821017620000e857604052565b604051906200013d82620000cc565b565b6001600160a01b03811603620000b457565b62004c65906040823803928382519485926200016e82856200010a565b833981010312620000b457602082519262000189846200013f565b01519162000197836200013f565b9190565b60405190620001aa82620000cc565b600a8252565b60405190620001bf82620000cc565b60018252565b906200013d9162000298620001d96200019b565b602081016926bca3b7bb32b93737b960b11b8152620001f7620001b0565b906020820190603160f81b82526200020f8462000a09565b610120526200021e8362000b12565b6101405283519020918260e05251902080610100524660a0526040519060208201927f8b73c3c69bb8fe3d512ecc4cf759cc79239f7b179b0ffacaa9a75d522b39400f8452604083015260608201524660808201523060a082015260a081526200028881620000ee565b5190206080523060c05262000418565b620002a262000506565b620002ac62000542565b620002b66200057e565b6001600160a01b031661016052620002cd62000665565b620005b6565b90600182811c9216801562000303575b6020831014620002ef57565b634e487b7160e01b5f52602260045260245ffd5b91607f1691620002e3565b601f81116200031b575050565b5f906002825260208220906020601f850160051c830194106200035b575b601f0160051c01915b8281106200034f57505050565b81815560010162000342565b909250829062000339565b601f811162000373575050565b5f9081805260208220906020601f850160051c83019410620003b2575b601f0160051c01915b828110620003a657505050565b81815560010162000399565b909250829062000390565b90601f8211620003cb575050565b6001915f9083825260208220906020601f850160051c830194106200040d575b601f0160051c01915b828110620004025750505050565b8181558301620003f4565b9092508290620003eb565b80519091906001600160401b038111620000e85762000444816200043e600254620002d3565b6200030e565b602080601f83116001146200048157508192935f9262000475575b50508160011b915f199060031b1c191617600255565b015190505f806200045f565b60025f52601f198316949091907f405787fa12a823e0f2b7631cc41b3ba8828b3321ca811111fa75cd3aa3bb5ace925f905b878210620004ed575050836001959610620004d4575b505050811b01600255565b01515f1960f88460031b161c191690555f8080620004c9565b80600185968294968601518155019501930190620004b3565b6006546040519081527fc565b045403dc03c2eea82b81a0465edad9e2e7fc4d97e11421c209da93d7a936040611c2092836020820152a1600655565b6007546040519081527f7e3f7f0708a84de9203036abaa450dccc85ad5ff52f78c170f3edb55cf5e8828604061c4e092836020820152a1600755565b7fccb45da8d5717e6c4544694297c4ba5cf151d455c9bb0ed4fc7a38411bc05461604060085481519081525f6020820152a15f600855565b600c547f08f74ea46ef7894f65eabfb5e6e695de773a000b47c529ab559178069b226401604060018060a01b038094169381519084168152846020820152a16001600160a01b03191617600c55565b600b5468010000000000000000811015620000e8576001810180600b558110156200065157600b5f5260205f20019063ffffffff81511690602063ffffffff1991015160201b16179055565b634e487b7160e01b5f52603260045260245ffd5b600b548015905f90821562000733575050620006e75f8051602062004c4583398151915291600a54905b81151590816200072a575b50620006ec575b620006ce620006c8620006c2620006b76200079b565b65ffffffffffff1690565b62000d71565b620008d5565b5050604080519182526004602083015290918291820190565b0390a1565b62000724620006fb8262000c9f565b6200071e620007096200012e565b5f81526001600160e01b039092166020830152565b62000605565b620006a1565b90505f6200069a565b5f199181838101116200078757600b9052017f0175b7a638427703f0dbe7bb9bbf987a2551717b34e79f33b5b1008d1fa01db901545f8051602062004c4583398151915291620006e79160201c906200068f565b634e487b7160e01b81526011600452602490fd5b610160516040516324776b7d60e21b815290602090829060049082906001600160a01b03165afa80915f91620007e2575b5090620007df5750620007df4362000d09565b90565b6020813d821162000827575b81620007fd602093836200010a565b810103126200082357519065ffffffffffff821682036200082057505f620007cc565b80fd5b5080fd5b3d9150620007ee565b5f198101919082116200083f57565b634e487b7160e01b5f52601160045260245ffd5b604080519192919081016001600160401b03811182821017620000e857604052602081935463ffffffff81168352811c910152565b156200089057565b60405162461bcd60e51b815260206004820152601b60248201527f436865636b706f696e743a2064656372656173696e67206b65797300000000006044820152606490fd5b600b548015620009e157620009a991816200092962000923620008fa60209562000830565b600b5f527f0175b7a638427703f0dbe7bb9bbf987a2551717b34e79f33b5b1008d1fa01db90190565b62000853565b9162000939835163ffffffff1690565b6200095263ffffffff9182841692839116111562000888565b6200096e62000965855163ffffffff1690565b63ffffffff1690565b03620009af575062000988620008fa6200099b9262000830565b64040000000063ffffffff825416179055565b01516001600160e01b031690565b90600490565b620009db9150620009cf620009c36200012e565b63ffffffff9092168252565b60048185015262000605565b6200099b565b5062000a0290620009f5620009c36200012e565b6004602082015262000605565b5f90600490565b9081516020908181105f1462000a2757505090620007df9062000c24565b6001600160401b038111620000e8575f9162000a4f8262000a498554620002d3565b62000366565b80601f831160011462000a8d575082939482939262000a81575b50508160011b915f199060031b1c191617905560ff90565b015190505f8062000a69565b5f8052601f198316957f290decd9548b62a8d60345a988386fc84ba6bc95484008f6362f93160ef3e563929185905b88821062000af95750508360019596971062000ae0575b505050811b01905560ff90565b01515f1960f88460031b161c191690555f808062000ad3565b8060018596829496860151815501950193019062000abc565b9081516020908181105f1462000b3057505090620007df9062000c24565b6001600160401b038111620000e85760019162000b598262000b538554620002d3565b620003bd565b80601f831160011462000b965750819293945f9262000b8a575b50505f19600383901b1c191690821b17905560ff90565b015190505f8062000b73565b60015f52601f198316959091907fb10e2d527612073b26eecdfd717e6a320cf44b4afac2b0732d9fcbe2b7fa0cf6925f905b88821062000be9575050838596971062000ae057505050811b01905560ff90565b80878596829496860151815501950193019062000bc8565b60208151910151906020811062000c16575090565b5f199060200360031b1b1690565b601f81511162000c3f5762000c398162000c01565b90511790565b6040519063305a27a960e01b82528160208060048301528251908160248401525f935b82851062000c85575050604492505f838284010152601f80199101168101030190fd5b848101820151868601604401529381019385935062000c62565b6001600160e01b039081811162000cb4571690565b60405162461bcd60e51b815260206004820152602760248201527f53616665436173743a2076616c756520646f65736e27742066697420696e20326044820152663234206269747360c81b6064820152608490fd5b65ffffffffffff9081811162000d1d571690565b60405162461bcd60e51b815260206004820152602660248201527f53616665436173743a2076616c756520646f65736e27742066697420696e203460448201526538206269747360d01b6064820152608490fd5b63ffffffff9081811162000d83571690565b60405162461bcd60e51b815260206004820152602660248201527f53616665436173743a2076616c756520646f65736e27742066697420696e203360448201526532206269747360d01b6064820152608490fdfe60806040526004361015610022575b3615610018575f80fd5b610020611e5e565b005b5f3560e01c806301ffc9a71461030157806302a251a3146102fc57806303420181146102f757806306f3f9e6146102f257806306fdde03146102ed578063143489d0146102e8578063150b7a02146102e3578063160cbed7146102de5780632656227d146102d95780632d63f693146102d45780632fe3e261146102cf5780633932abb1146102ca5780633bccf4fd146102c55780633e4f49e6146102c057806343859632146102bb578063452115d6146102b65780634bf5d7e9146102b1578063544ffc9c146102ac57806354fd4d50146102a757806356781388146102a25780635f398a141461029d57806360c4247f1461029857806370b0f660146102935780637b3c71d31461028e5780637d5e81e21461028957806384b0196e1461028457806391ddadf41461027f57806397c3d3341461027a5780639a802a6d14610275578063a7713a7014610270578063a890c9101461026b578063ab58fb8e14610266578063b58131b014610261578063bc197c811461025c578063c01f9e3714610257578063c28bc2fa14610252578063c59057e41461024d578063d33219b414610248578063dd4e2ba514610243578063deaaa7cc1461023e578063ea0217cf14610239578063eb9019d414610234578063ece40cc11461022f578063f23a6e611461022a578063f8ce560a146102255763fc0c546a0361000e57611e1a565b611d64565b611d0b565b611c79565b611bdb565b611aee565b611ab4565b611a57565b611a2f565b611a13565b6118f3565b6118bd565b611831565b611814565b61176f565b6116c3565b6116a9565b6115d9565b6115be565b611594565b6114cd565b611401565b6113ac565b61131a565b6112fc565b61128d565b61123f565b6111fe565b6111bd565b61118e565b6110d9565b611084565b611055565b610f8b565b610f6e565b610f34565b610f01565b610d79565b610b94565b61097c565b610936565b610856565b61066b565b6105e3565b6103d4565b346103c65760203660031901126103c65760043563ffffffff60e01b81168091036103c65761034f90636e665ced60e01b8114908115610353575b5060405190151581529081906020820190565b0390f35b63bf26d89760e01b8114915081156103b5575b81156103a4575b8115610393575b8115610382575b505f61033c565b6301ffc9a760e01b1490505f61037b565b630271189760e51b81149150610374565b63288ace0360e11b8114915061036d565b6379dd796f60e01b81149150610366565b5f80fd5b5f9103126103c657565b346103c6575f3660031901126103c6576020600754604051908152f35b6024359060ff821682036103c657565b6044359060ff821682036103c657565b9181601f840112156103c6578235916001600160401b0383116103c657602083818601950101116103c657565b634e487b7160e01b5f52604160045260245ffd5b6001600160401b03811161046557604052565b61043e565b604081019081106001600160401b0382111761046557604052565b608081019081106001600160401b0382111761046557604052565b602081019081106001600160401b0382111761046557604052565b606081019081106001600160401b0382111761046557604052565b60c081019081106001600160401b0382111761046557604052565b90601f801991011681019081106001600160401b0382111761046557604052565b6040519061051f8261046a565b565b6040519060e082018281106001600160401b0382111761046557604052565b6001600160401b03811161046557601f01601f191660200190565b91909161056781610540565b61057460405191826104f1565b809382825282116103c65781815f9384602080950137010152565b92919261059b82610540565b916105a960405193846104f1565b8294818452818301116103c6578281602093845f960137010152565b9080601f830112156103c6578160206105e09335910161058f565b90565b346103c65760e03660031901126103c6576105fc6103f1565b6001600160401b036044358181116103c65761061c903690600401610411565b916064359081116103c6576106359036906004016105c5565b9260843560ff811681036103c65761034f9461065b9460c4359460a43594600435612193565b6040519081529081906020820190565b346103c65760203660031901126103c657600c54600435906001600160a01b03166106973382146123dc565b30036107d9575b60648111610762577f0553476bf02ef2726e8ce5ced78d63e26e602e4a2257b1f559418e24b4633997906106d0612880565b80151580610758575b610722575b61070e6106ff6106fa6106ef61266d565b65ffffffffffff1690565b613352565b61070884613282565b90612b80565b5050604080519182526020820192909252a1005b61075361072e82613282565b61074e610739610512565b5f81526001600160e01b039092166020830152565b612a9c565b6106de565b50600b54156106d9565b60405162461bcd60e51b815260206004820152604360248201527f476f7665726e6f72566f74657351756f72756d4672616374696f6e3a2071756f60448201527f72756d4e756d657261746f72206f7665722071756f72756d44656e6f6d696e616064820152623a37b960e91b608482015260a490fd5b6107e3363661055b565b602081519101205b806107f46133b7565b036107eb575061069e565b5f5b8381106108105750505f910152565b8181015183820152602001610801565b90602091610839815180928185528580860191016107ff565b601f01601f1916010190565b9060206105e0928181520190610820565b346103c6575f8060031936011261093357604051908060025461087881611eb7565b8085529160019180831690811561090957506001146108ae575b61034f856108a2818703826104f1565b60405191829182610845565b9250600283527f405787fa12a823e0f2b7631cc41b3ba8828b3321ca811111fa75cd3aa3bb5ace5b8284106108f15750505081016020016108a28261034f610892565b805460208587018101919091529093019281016108d6565b86955061034f969350602092506108a294915060ff191682840152151560051b8201019293610892565b80fd5b346103c65760203660031901126103c6576004355f526003602052602060018060a01b0360405f205460401c16604051908152f35b6001600160a01b038116036103c657565b346103c65760803660031901126103c65761099860043561096b565b6109a360243561096b565b6064356001600160401b0381116103c6576109c29036906004016105c5565b50604051630a85bd0160e11b8152602090f35b6001600160401b0381116104655760051b60200190565b81601f820112156103c657803591610a03836109d5565b92610a1160405194856104f1565b808452602092838086019260051b8201019283116103c6578301905b828210610a3b575050505090565b8380918335610a498161096b565b815201910190610a2d565b81601f820112156103c657803591610a6b836109d5565b92610a7960405194856104f1565b808452602092838086019260051b8201019283116103c6578301905b828210610aa3575050505090565b81358152908301908301610a95565b9080601f830112156103c657813590610aca826109d5565b92610ad860405194856104f1565b828452602092838086019160051b830101928084116103c657848301915b848310610b065750505050505090565b82356001600160401b0381116103c6578691610b27848480948901016105c5565b815201920191610af6565b60806003198201126103c6576001600160401b03916004358381116103c65782610b5e916004016109ec565b926024358181116103c65783610b7691600401610a54565b926044359182116103c657610b8d91600401610ab2565b9060643590565b346103c657610ba236610b32565b92610bb284838584969596611f86565b92610bd06004610bc186613429565b610bca8161104b565b14611fea565b600c54610bed906001600160a01b03165b6001600160a01b031690565b60405163793d064960e11b815293906020908186600481845afa958615610d28575f96610d5a575b5081604051809263b1c5f42760e01b82528180610c388d8a8a8d600486016125db565b03915afa918215610d28575f92610d2d575b5050610c5e865f52600d60205260405f2090565b55600c54610c74906001600160a01b0316610be1565b90813b156103c6575f8094610ca0876040519a8b97889687956308f2a0bb60e41b875260048701612620565b03925af1928315610d2857610ce47f9a2e42fd6722813d69113e7d0079d3d940171428df7373df9c7f7617cfda289292610cfc9261034f96610d0f575b5042612492565b60408051858152602081019290925290918291820190565b0390a16040519081529081906020820190565b80610d1c610d2292610452565b806103ca565b5f610cdd565b6125d0565b610d4c9250803d10610d53575b610d4481836104f1565b8101906125c1565b5f80610c4a565b503d610d3a565b610d72919650823d8411610d5357610d4481836104f1565b945f610c15565b610d8236610b32565b610d9181838587959697611f86565b92610d9b84613429565b926008841015610efc57610dbc600494858114908115610ee8575b50611fea565b610de16002610dd3875f52600360205260405f2090565b01805460ff19166001179055565b60409384518681527f712ae1383f79ac853f8d882153778e0260ef8f03b504e2866e0593e04d2b291f60208092a1600c546001600160a01b039081163003610e4c575b5050509061034f95610e369392613c24565b610e3e6120d8565b519081529081906020820190565b909495939291965f96875b8451811015610ecf573084610e6c83886120bf565b511614610e89575b5f198114610e8457600101610e57565b612097565b610e9381876120bf565b518881519101206001600160801b038b5491608092831d9081600f0b8d5260058c528a8d20558c5492600183199201901b169116178a55610e74565b5090975093955092935090915085610e3661034f610e24565b60059150610ef58161104b565b145f610db6565b611037565b346103c65760203660031901126103c6576004355f52600360205260206001600160401b0360405f205416604051908152f35b346103c6575f3660031901126103c65760206040517fb3b3f3b703cd84ce352197dcff232b1b5d3cfb2025ce47cf04742d0651f1af888152f35b346103c6575f3660031901126103c6576020600654604051908152f35b346103c65760a03660031901126103c65761034f61065b600435610fad6103f1565b61102261101a610fbb610401565b60405160208101917f150214d74d59b7d1e90c73fc22ef3d991dd0a76b046543d4d80ab92d2a50328f835286604083015260ff861660608301526060825261100282610485565b6110156084359360643593519020612e2f565b612daf565b919091612c8f565b6040519261102f846104a0565b5f845261222e565b634e487b7160e01b5f52602160045260245ffd5b60081115610efc57565b346103c65760203660031901126103c657611071600435613429565b6040516008821015610efc576020918152f35b346103c65760403660031901126103c657602060ff6110cd6024356110a88161096b565b6004355f5260098452600360405f20019060018060a01b03165f5260205260405f2090565b54166040519015158152f35b346103c6576110e736610b32565b906110f482828587611f86565b926110fe84613429565b6008811015610efc576111495761034f9461114461113d610be161112d61065b985f52600360205260405f2090565b5460401c6001600160a01b031690565b3314612040565b613c77565b60405162461bcd60e51b815260206004820152601c60248201527f476f7665726e6f723a20746f6f206c61746520746f2063616e63656c000000006044820152606490fd5b346103c6575f3660031901126103c65761034f6111a9612742565b604051918291602083526020830190610820565b346103c65760203660031901126103c6576004355f526009602052606060405f20805490600260018201549101549060405192835260208301526040820152f35b346103c6575f3660031901126103c65761034f60405161121d8161046a565b60018152603160f81b6020820152604051918291602083526020830190610820565b346103c65760403660031901126103c657602061128561125d6103f1565b604051611269816104a0565b5f815260405191611279836104a0565b5f8352336004356122a9565b604051908152f35b346103c65760803660031901126103c6576112a66103f1565b6001600160401b03906044358281116103c6576112c7903690600401610411565b90916064359384116103c6576112f2611285936112ea60209636906004016105c5565b93369161058f565b90336004356122a9565b346103c65760203660031901126103c6576020611285600435612909565b346103c65760203660031901126103c657600c54600435906001600160a01b03166113463382146123dc565b3003611386575b60065460408051918252602082018390527fc565b045403dc03c2eea82b81a0465edad9e2e7fc4d97e11421c209da93d7a9391a1600655005b611390363661055b565b602081519101205b806113a16133b7565b03611398575061134d565b346103c65760603660031901126103c6576113c56103f1565b6044356001600160401b0381116103c6576020916113f46113ed611285933690600401610411565b369161058f565b60405191611279836104a0565b346103c65760803660031901126103c6576001600160401b036004358181116103c6576114329036906004016109ec565b906024358181116103c65761144b903690600401610a54565b916044358281116103c657611464903690600401610ab2565b6064359283116103c657366023840112156103c65761034f9361149461065b94369060248160040135910161058f565b92613a5d565b9081518082526020808093019301915f5b8281106114b9575050505090565b8351855293810193928101926001016114ab565b346103c6575f3660031901126103c6576115666115097f0000000000000000000000000000000000000000000000000000000000000000612f69565b61034f6115357f000000000000000000000000000000000000000000000000000000000000000061305e565b61157460405191611545836104a0565b5f8352604051958695600f60f81b875260e0602088015260e0870190610820565b908582036040870152610820565b904660608501523060808501525f60a085015283820360c085015261149a565b346103c6575f3660031901126103c65760206115ae61266d565b65ffffffffffff60405191168152f35b346103c6575f3660031901126103c657602060405160648152f35b346103c65760603660031901126103c6576004356115f68161096b565b6044356001600160401b0381116103c65760449161161a60209236906004016105c5565b50604051630748d63560e31b81526001600160a01b039182166004820152602480359082015292839182907f0000000000000000000000000000000000000000000000000000000000000000165afa8015610d285761034f915f9161168b575b506040519081529081906020820190565b6116a3915060203d8111610d5357610d4481836104f1565b5f61167a565b346103c6575f3660031901126103c6576020611285612880565b346103c65760203660031901126103c6576004356116e08161096b565b600c546001600160a01b03919082166116fa3382146123dc565b3003611749575b7f08f74ea46ef7894f65eabfb5e6e695de773a000b47c529ab559178069b226401604083600c5493169381519084168152846020820152a16001600160a01b03191617600c55005b611753363661055b565b602081519101205b806117646133b7565b0361175b5750611701565b346103c65760203660031901126103c6576117c6602060018060a01b03600c54166117a46004355f52600d60205260405f2090565b5490604051808095819463d45c443560e01b8352600483019190602083019252565b03915afa908115610d28575f916117f6575b50600181036117ed57506040515f8152602090f35b61034f9061065b565b61180e915060203d8111610d5357610d4481836104f1565b5f6117d8565b346103c6575f3660031901126103c6576020600854604051908152f35b346103c65760a03660031901126103c65761184d60043561096b565b61185860243561096b565b6001600160401b036044358181116103c657611878903690600401610a54565b506064358181116103c657611891903690600401610a54565b506084359081116103c6576118aa9036906004016105c5565b5060405163bc197c8160e01b8152602090f35b346103c65760203660031901126103c6576004355f52600360205260206001600160401b03600160405f20015416604051908152f35b60603660031901126103c65760043561190b8161096b565b6044356001600160401b0381116103c65761192a903690600401610411565b600c54909291906001600160a01b03166119453382146123dc565b30036119ed575b6119e2918360405194859384378201905f94859383858095520391602435905af13d156119e6573d61197d81610540565b9061198b60405192836104f1565b81523d84602083013e5b604051916119a2836104bb565b602883527f476f7665726e6f723a2072656c617920726576657274656420776974686f7574602084015267206d65737361676560c01b6040840152612af4565b5080f35b6060611995565b6119f7363661055b565b602081519101205b80611a086133b7565b036119ff575061194c565b346103c6576020611285611a2636610b32565b92919091611f86565b346103c6575f3660031901126103c657600c546040516001600160a01b039091168152602090f35b346103c6575f3660031901126103c65761034f604051611a768161046a565b602081527f737570706f72743d627261766f2671756f72756d3d666f722c6162737461696e6020820152604051918291602083526020830190610820565b346103c6575f3660031901126103c65760206040517f150214d74d59b7d1e90c73fc22ef3d991dd0a76b046543d4d80ab92d2a50328f8152f35b346103c65760203660031901126103c657600c54600435906001600160a01b0316611b1a3382146123dc565b3003611bb5575b8015611b605760075460408051918252602082018390527f7e3f7f0708a84de9203036abaa450dccc85ad5ff52f78c170f3edb55cf5e882891a1600755005b60405162461bcd60e51b815260206004820152602760248201527f476f7665726e6f7253657474696e67733a20766f74696e6720706572696f6420604482015266746f6f206c6f7760c81b6064820152608490fd5b611bbf363661055b565b602081519101205b80611bd06133b7565b03611bc75750611b21565b346103c65760403660031901126103c65760446020600435611bfc8161096b565b5f604051611c09816104a0565b52604051630748d63560e31b81526001600160a01b039182166004820152602480359082015292839182907f0000000000000000000000000000000000000000000000000000000000000000165afa8015610d285761034f915f9161168b57506040519081529081906020820190565b346103c65760203660031901126103c657600c54600435906001600160a01b0316611ca53382146123dc565b3003611ce5575b60085460408051918252602082018390527fccb45da8d5717e6c4544694297c4ba5cf151d455c9bb0ed4fc7a38411bc0546191a1600855005b611cef363661055b565b602081519101205b80611d006133b7565b03611cf75750611cac565b346103c65760a03660031901126103c657611d2760043561096b565b611d3260243561096b565b6084356001600160401b0381116103c657611d519036906004016105c5565b5060405163f23a6e6160e01b8152602090f35b346103c65760203660031901126103c657604051632394e7a360e21b8152600480359082018190526020826024817f00000000000000000000000000000000000000000000000000000000000000006001600160a01b03165afa918215610d28575f92611df6575b50611dd690612909565b90818102918183041490151715610e845760405160649091048152602090f35b611dd6919250611e139060203d8111610d5357610d4481836104f1565b9190611dcc565b346103c6575f3660031901126103c6576040517f00000000000000000000000000000000000000000000000000000000000000006001600160a01b03168152602090f35b600c546001600160a01b03163003611e7257565b60405162461bcd60e51b815260206004820152601f60248201527f476f7665726e6f723a206d7573742073656e6420746f206578656375746f72006044820152606490fd5b90600182811c92168015611ee5575b6020831014611ed157565b634e487b7160e01b5f52602260045260245ffd5b91607f1691611ec6565b9081518082526020808093019301915f5b828110611f0e575050505090565b83516001600160a01b031685529381019392810192600101611f00565b908082519081815260208091019281808460051b8301019501935f915b848310611f585750505050505090565b9091929394958480611f76600193601f198682030187528a51610820565b9801930193019194939290611f48565b9290611fd292611fe492604051948592611fc2611faf602086019960808b5260a0870190611eef565b601f19968787830301604088015261149a565b9085858303016060860152611f2b565b906080830152039081018352826104f1565b51902090565b15611ff157565b60405162461bcd60e51b815260206004820152602160248201527f476f7665726e6f723a2070726f706f73616c206e6f74207375636365737366756044820152601b60fa1b6064820152608490fd5b1561204757565b60405162461bcd60e51b815260206004820152602260248201527f476f7665726e6f723a206f6e6c792070726f706f7365722063616e2063616e63604482015261195b60f21b6064820152608490fd5b634e487b7160e01b5f52601160045260245ffd5b634e487b7160e01b5f52603260045260245ffd5b80518210156120d35760209160051b010190565b6120ab565b600c546001600160a01b031630036120ec57565b60045480600f0b9060801d600f0b1361210157565b5f600455565b906020905f604051612118816104a0565b52604051630748d63560e31b81526001600160a01b039384166004820152602481019190915291829060449082907f0000000000000000000000000000000000000000000000000000000000000000165afa908115610d28575f9161217b575090565b6105e0915060203d8111610d5357610d4481836104f1565b94926122206105e098612228949396986113ed966110158a8a8d6121b8368a8c61058f565b6020815191012090602081519101209060ff6040519360208501957fb3b3f3b703cd84ce352197dcff232b1b5d3cfb2025ce47cf04742d0651f1af8887526040860152166060840152608083015260a082015260a08152612218816104d6565b519020612e2f565b949094612c8f565b926122a9565b916105e0939160405193612241856104a0565b5f85526122a9565b93909260ff612275936105e097958752166020860152604085015260a0606085015260a0840190610820565b916080818403910152610820565b909260ff6080936105e09695845216602083015260408201528160608201520190610820565b929190835f52600360205260405f2060016122c386613429565b6122cc8161104b565b0361238b576122f46122e86122fa92546001600160401b031690565b6001600160401b031690565b8261281c565b946123078684848861249f565b805161234f57506123497fb8e138887d0aa13bab447e82de9d5c1777041ecd21ca36ba824ff1e6c07ddda4938660405194859460018060a01b03169785612283565b0390a290565b612349907fe2babfbac5889a709b63bb7f598b324e08bc5a4fb9ec647fb3cbc9ec07eb8712948760405195869560018060a01b03169886612249565b60405162461bcd60e51b815260206004820152602360248201527f476f7665726e6f723a20766f7465206e6f742063757272656e746c792061637460448201526269766560e81b6064820152608490fd5b156123e357565b60405162461bcd60e51b815260206004820152601860248201527f476f7665726e6f723a206f6e6c79476f7665726e616e636500000000000000006044820152606490fd5b1561242f57565b60405162461bcd60e51b815260206004820152602760248201527f476f7665726e6f72566f74696e6753696d706c653a20766f746520616c726561604482015266191e4818d85cdd60ca1b6064820152608490fd5b9060018201809211610e8457565b91908201809211610e8457565b916125156125086124bb60ff94955f52600960205260405f2090565b94600386016124f36124ee6124ea6124e385859060018060a01b03165f5260205260405f2090565b5460ff1690565b1590565b612428565b9060018060a01b03165f5260205260405f2090565b805460ff19166001179055565b168061252c575090612528908254612492565b9055565b60018103612544575060016125289101918254612492565b60020361255a5760026125289101918254612492565b60405162461bcd60e51b815260206004820152603560248201527f476f7665726e6f72566f74696e6753696d706c653a20696e76616c69642076616044820152746c756520666f7220656e756d20566f74655479706560581b6064820152608490fd5b0390fd5b908160209103126103c6575190565b6040513d5f823e3d90fd5b9493926126076080936125f96126159460a08a5260a08a0190611eef565b9088820360208a015261149a565b908682036040880152611f2b565b935f60608201520152565b919261264f60a09461264161265d949998979960c0875260c0870190611eef565b90858203602087015261149a565b908382036040850152611f2b565b945f606083015260808201520152565b6040516324776b7d60e21b81526020816004817f00000000000000000000000000000000000000000000000000000000000000006001600160a01b03165afa80915f916126c5575b50906105e057506105e0436132eb565b6020813d8211612701575b816126dd602093836104f1565b810103126126fd57519065ffffffffffff8216820361093357505f6126b5565b5080fd5b3d91506126d0565b604051906127168261046a565b601d82527f6d6f64653d626c6f636b6e756d6265722666726f6d3d64656661756c740000006020830152565b604051634bf5d7e960e01b81525f80826004817f00000000000000000000000000000000000000000000000000000000000000006001600160a01b03165afa90918282612799575b50506105e057506105e0612709565b909192503d8082843e6127ac81846104f1565b8201916020818403126126fd578051906001600160401b038211612818570182601f820112156126fd578051916127e283610540565b936127f060405195866104f1565b8385526020848401011161093357509061281091602080850191016107ff565b905f8061278a565b8280fd5b604051630748d63560e31b81526001600160a01b0391821660048201526024810192909252602090829060449082907f0000000000000000000000000000000000000000000000000000000000000000165afa908115610d28575f9161217b575090565b600b545f9080612892575050600a5490565b805f19810111610e8457600b7f0175b7a638427703f0dbe7bb9bbf987a2551717b34e79f33b5b1008d1fa01db89252015460201c90565b5f19810191908211610e8457565b90604051604081018181106001600160401b0382111761046557604052602081935463ffffffff81168352811c910152565b600b9081548015612a93575f198101818111610e84578111156120d3575f928084526129567f0175b7a638427703f0dbe7bb9bbf987a2551717b34e79f33b5b1008d1fa01db883016128d7565b9263ffffffff9381858251161115612a7d575061297290613352565b92848360058111612a2e575b5092939192918116905b8483106129dc575050505080155f146129a957505b6001600160e01b031690565b6129d791506129ba6129d0916128c9565b600b5f525f80516020613e188339815191520190565b5460201c90565b61299d565b909192938084169080851860011c8201809211610e84578587528383835f80516020613e18833981519152015416115f14612a1c5750935b929190612988565b949350612a2890612484565b92612a14565b9093612a3982613132565b8203918211610e84578387525f80516020613e1883398151915282015483168684161015612a6c57508190935b9061297e565b9350612a788291612484565b612a66565b602001516001600160e01b031695945050505050565b505050600a5490565b600b549068010000000000000000821015610465576001820180600b558210156120d357600b5f52805160209182015190911b63ffffffff191663ffffffff91909116175f80516020613e1883398151915290910155565b90919015612b00575090565b815115612b105750805190602001fd5b60405162461bcd60e51b8152602060048201529081906125bd906024830190610820565b15612b3b57565b60405162461bcd60e51b815260206004820152601b60248201527f436865636b706f696e743a2064656372656173696e67206b65797300000000006044820152606490fd5b600b549192918015612c5c57612c22918185612ba8612ba36129ba6020966128c9565b6128d7565b92612bb7845163ffffffff1690565b612bce63ffffffff91828416928391161115612b34565b612be8612bdf865163ffffffff1690565b63ffffffff1690565b03612c265750612bfd6129ba612c14936128c9565b9063ffffffff82549181199060201b169116179055565b01516001600160e01b031690565b9190565b9050612c579150612c44612c38610512565b63ffffffff9092168252565b6001600160e01b03871681850152612a9c565b612c14565b50612c8090612c6c612c38610512565b6001600160e01b0384166020820152612a9c565b5f9190565b60051115610efc57565b612c9881612c85565b80612ca05750565b612ca981612c85565b60018103612cf65760405162461bcd60e51b815260206004820152601860248201527f45434453413a20696e76616c6964207369676e617475726500000000000000006044820152606490fd5b612cff81612c85565b60028103612d4c5760405162461bcd60e51b815260206004820152601f60248201527f45434453413a20696e76616c6964207369676e6174757265206c656e677468006044820152606490fd5b80612d58600392612c85565b14612d5f57565b60405162461bcd60e51b815260206004820152602260248201527f45434453413a20696e76616c6964207369676e6174757265202773272076616c604482015261756560f01b6064820152608490fd5b9291907f7fffffffffffffffffffffffffffffff5d576e7357a4501ddfe92f46681b20a08311612e245791608094939160ff6020946040519485521684840152604083015260608201525f93849182805260015afa15610d285781516001600160a01b03811615612e1e579190565b50600190565b505050505f90600390565b604290612e3a612e55565b906040519161190160f01b8352600283015260228201522090565b307f00000000000000000000000000000000000000000000000000000000000000006001600160a01b03161480612f40575b15612eb0577f000000000000000000000000000000000000000000000000000000000000000090565b60405160208101907f8b73c3c69bb8fe3d512ecc4cf759cc79239f7b179b0ffacaa9a75d522b39400f82527f000000000000000000000000000000000000000000000000000000000000000060408201527f000000000000000000000000000000000000000000000000000000000000000060608201524660808201523060a082015260a08152611fe4816104d6565b507f00000000000000000000000000000000000000000000000000000000000000004614612e87565b60ff8114612fa75760ff811690601f8211612f955760405191612f8b8361046a565b8252602082015290565b604051632cd44ac360e21b8152600490fd5b506040515f81815491612fb983611eb7565b8083529260019081811690811561303c5750600114612fe0575b506105e0925003826104f1565b5f80805291507f290decd9548b62a8d60345a988386fc84ba6bc95484008f6362f93160ef3e5635b84831061302157506105e093505081016020015f612fd3565b81935090816020925483858901015201910190918492613008565b9050602092506105e094915060ff191682840152151560051b8201015f612fd3565b60ff81146130805760ff811690601f8211612f955760405191612f8b8361046a565b506040515f8160019182549261309584611eb7565b8084529381811690811561303c57506001146130b857506105e0925003826104f1565b5f81815291507fb10e2d527612073b26eecdfd717e6a320cf44b4afac2b0732d9fcbe2b7fa0cf65b8483106130f957506105e093505081016020015f612fd3565b819350908160209254838589010152019101909184926130e0565b811561311e570490565b634e487b7160e01b5f52601260045260245ffd5b801561326b57806132046131fd6131f36131e96131df6131d56131cb6131c160016105e09a5f908b60801c8061325f575b508060401c80613252575b508060201c80613245575b508060101c80613238575b508060081c8061322b575b508060041c8061321e575b508060021c80613211575b50821c61320a575b811c1b6131ba818b613114565b0160011c90565b6131ba818a613114565b6131ba8189613114565b6131ba8188613114565b6131ba8187613114565b6131ba8186613114565b6131ba8185613114565b8092613114565b90613270565b81016131ad565b600291509101905f6131a5565b600491509101905f61319a565b600891509101905f61318f565b601091509101905f613184565b602091509101905f613179565b604091509101905f61316e565b9150506080905f613163565b505f90565b908082101561327d575090565b905090565b6001600160e01b0390818111613296571690565b60405162461bcd60e51b815260206004820152602760248201527f53616665436173743a2076616c756520646f65736e27742066697420696e20326044820152663234206269747360c81b6064820152608490fd5b65ffffffffffff908181116132fe571690565b60405162461bcd60e51b815260206004820152602660248201527f53616665436173743a2076616c756520646f65736e27742066697420696e203460448201526538206269747360d01b6064820152608490fd5b63ffffffff90818111613363571690565b60405162461bcd60e51b815260206004820152602660248201527f53616665436173743a2076616c756520646f65736e27742066697420696e203360448201526532206269747360d01b6064820152608490fd5b6004549081600f0b809260801d600f0b13156133ff57815f52600560205260405f20915f8354935560016001600160801b03196004541691016001600160801b031617600455565b604051631ed9509560e11b8152600490fd5b908160209103126103c6575180151581036103c65790565b61343281613542565b9061343c8261104b565b6004820361353e57613456905f52600d60205260405f2090565b5480613460575090565b600c54909150613478906001600160a01b0316610be1565b604051632ab0f52960e01b81526004810183905260209291908381602481855afa908115610d28575f91613521575b50156134b557505050600790565b604051632c258a9f60e11b815260048101929092528290829060249082905afa918215610d28575f926134f4575b5050156134ef57600590565b600290565b6135139250803d1061351a575b61350b81836104f1565b810190613411565b5f806134e3565b503d613501565b6135389150843d861161351a5761350b81836104f1565b5f6134a7565b5090565b6002613556825f52600360205260405f2090565b015460ff81166136685760081c60ff166136625761358f6122e8613582835f52600360205260405f2090565b546001600160401b031690565b801561361d576135a06106ef61266d565b80911015613617576135d06122e860016135c2855f52600360205260405f2090565b01546001600160401b031690565b1015612e1e576135df8161366f565b90816135f6575b50156135f157600490565b600390565b61361191505f52600960205260405f20600181015490541090565b5f6135e6565b50505f90565b60405162461bcd60e51b815260206004820152601d60248201527f476f7665726e6f723a20756e6b6e6f776e2070726f706f73616c2069640000006044820152606490fd5b50600290565b5050600790565b5f52600960205260405f2060036020526001600160401b0360405f2054169060405191632394e7a360e21b835280600484015260208360248160018060a01b037f0000000000000000000000000000000000000000000000000000000000000000165afa928315610d28575f93613719575b506136eb90612909565b91828102928184041490151715610e84576137128160026001606494015491015490612492565b9104111590565b6136eb9193506137369060203d8111610d5357610d4481836104f1565b92906136e1565b1561374457565b60405162461bcd60e51b815260206004820152603160248201527f476f7665726e6f723a2070726f706f73657220766f7465732062656c6f7720706044820152701c9bdc1bdcd85b081d1a1c995cda1bdb19607a1b6064820152608490fd5b156137aa57565b60405162461bcd60e51b815260206004820152602160248201527f476f7665726e6f723a20696e76616c69642070726f706f73616c206c656e67746044820152600d60fb1b6064820152608490fd5b1561380057565b60405162461bcd60e51b815260206004820152601860248201527f476f7665726e6f723a20656d7074792070726f706f73616c00000000000000006044820152606490fd5b1561384c57565b60405162461bcd60e51b815260206004820152602160248201527f476f7665726e6f723a2070726f706f73616c20616c72656164792065786973746044820152607360f81b6064820152608490fd5b815160208301516040808501516001600160401b039384169290911b68010000000000000000600160e01b0316919091176001600160e01b03199091161782556060830151608084015167ffffffffffffffff1916911617600182015561051f91906139319060c0906002019261392a61391860a0830151151590565b859060ff801983541691151516179055565b0151151590565b815461ff00191690151560081b61ff0016179055565b90613951826109d5565b61395e60405191826104f1565b828152809261396f601f19916109d5565b01905f5b82811061397f57505050565b806060602080938501015201613973565b95926139c3906139d1939b9a9899969592885260209b60018060a01b03168c8901526101208060408a0152880190611eef565b90868203606088015261149a565b9784890360808601528251808a52818a019180808360051b8d01019501925f905b838210613a2f5750505050506105e096975090613a169184820360a0860152611f2b565b9360c083015260e0820152610100818403910152610820565b90919293958380613a4e8f93600194601f199082030186528a51610820565b980192019201909392916139f2565b613bb67f7d84a6263ae0d98d3329bd7b46bb4e8d6f98cd35a7adb45c274c8b7fd5ebd5e09394613a8e6106ef61266d565b95613aae613aa4613a9e896128c9565b33612107565b600854111561373d565b613b1a613ac383516020850120838888611f86565b97613ad186518851146137a3565b613ade86518451146137a3565b613aea865115156137f9565b613b116001600160401b03613b0a6135828c5f52600360205260405f2090565b1615613845565b60065490612492565b613b2660075482612492565b91613b9e613b3383613bbc565b613b75613b3f86613bbc565b613b59613b4a610521565b6001600160401b039094168452565b3360208401525f60408401526001600160401b03166060830152565b5f60808201525f60a08201525f60c0820152613b998b5f52600360205260405f2090565b61389b565b613ba88651613947565b604051978897338c8a613990565b0390a190565b6001600160401b0390818111613bd0571690565b60405162461bcd60e51b815260206004820152602660248201527f53616665436173743a2076616c756520646f65736e27742066697420696e203660448201526534206269747360d01b6064820152608490fd5b919060018060a01b03600c541690813b156103c6575f93613c5b6040519687958694859463e38335e560e01b8652600486016125db565b039134905af18015610d2857613c6e5750565b61051f90610452565b90613c83939291611f86565b613c8c81613429565b6008811015610efc57806002613cb19214159081613db5575b81613da0575b50613dcb565b613cd86002613cc8835f52600360205260405f2090565b01805461ff001916610100179055565b6040518181527f789cf55be980739dad1d0699b93b58e806b51c9d96619bfa8fe0a28abaa7b30c90602090a1613d16815f52600d60205260405f2090565b54613d1e5790565b600c54613d33906001600160a01b0316610be1565b613d45825f52600d60205260405f2090565b5490803b156103c65760405163c4d252f560e01b815260048101929092525f908290602490829084905af18015610d2857613d8d575b505f818152600d602052604081205590565b80610d1c613d9a92610452565b5f613d7b565b60079150613dad8161104b565b14155f613cab565b9050613dc08161104b565b600681141590613ca5565b15613dd257565b60405162461bcd60e51b815260206004820152601d60248201527f476f7665726e6f723a2070726f706f73616c206e6f74206163746976650000006044820152606490fdfe0175b7a638427703f0dbe7bb9bbf987a2551717b34e79f33b5b1008d1fa01db9a26469706673582212207224cd0b545dd87645896f996c3732e82cd0d880ea5830e4e8bedd3706b0eb9064736f6c634300081400330553476bf02ef2726e8ce5ced78d63e26e602e4a2257b1f559418e24b4633997",
  "immutableReferences": {
    "4163": [
      {
        "length": 32,
        "start": 5703
      },
      {
        "length": 32,
        "start": 7222
      },
      {
        "length": 32,
        "start": 7572
      },
      {
        "length": 32,
        "start": 7727
      },
      {
        "length": 32,
        "start": 8520
      },
      {
        "length": 32,
        "start": 9858
      },
      {
        "length": 32,
        "start": 10071
      },
      {
        "length": 32,
        "start": 10317
      },
      {
        "length": 32,
        "start": 14001
      }
    ],
    "9810": [
      {
        "length": 32,
        "start": 11918
      }
    ],
    "9812": [
      {
        "length": 32,
        "start": 12099
      }
    ],
    "9814": [
      {
        "length": 32,
        "start": 11864
      }
    ],
    "9816": [
      {
        "length": 32,
        "start": 11997
      }
    ],
    "9818": [
      {
        "length": 32,
        "start": 12035
      }
    ],
    "9821": [
      {
        "length": 32,
        "start": 5349
      }
    ],
    "9824": [
      {
        "length": 32,
        "start": 5393
      }
    ]
  },
  "source": "// SPDX-License-Identifier: MIT\npragma solidity ^0.8.9;\n\nimport \"@openzeppelin/contracts/governance/Governor.sol\";\nimport \"@openzeppelin/contracts/governance/extensions/GovernorSettings.sol\";\nimport \"@openzeppelin/contracts/governance/extensions/GovernorCountingSimple.sol\";\nimport \"@openzeppelin/contracts/governance/extensions/GovernorVotes.sol\";\nimport \"@openzeppelin/contracts/governance/extensions/GovernorVotesQuorumFraction.sol\";\nimport \"@openzeppelin/contracts/governance/extensions/GovernorTimelockControl.sol\";\n\ncontract BevorDAO is Governor, GovernorSettings, GovernorCountingSimple, GovernorVotes, GovernorVotesQuorumFraction, GovernorTimelockControl {\n    constructor(IVotes _token, TimelockController _timelock)\n        Governor(\"MyGovernor\")\n        GovernorSettings(7200 /* 1 day */, 50400 /* 1 week */, 0)\n        GovernorVotes(_token)\n        GovernorVotesQuorumFraction(4)\n        GovernorTimelockControl(_timelock)\n    {}\n\n    // The following functions are overrides required by Solidity.\n\n    function votingDelay()\n        public\n        view\n        override(IGovernor, GovernorSettings)\n        returns (uint256)\n    {\n        return super.votingDelay();\n    }\n\n    function votingPeriod()\n        public\n        view\n        override(IGovernor, GovernorSettings)\n        returns (uint256)\n    {\n        return super.votingPeriod();\n    }\n\n    function quorum(uint256 blockNumber)\n        public\n        view\n        override(IGovernor, GovernorVotesQuorumFraction)\n        returns (uint256)\n    {\n        return super.quorum(blockNumber);\n    }\n\n    function state(uint256 proposalId)\n        public\n        view\n        override(Governor, GovernorTimelockControl)\n        returns (ProposalState)\n    {\n        return super.state(proposalId);\n    }\n\n    function propose(address[] memory targets, uint256[] memory values, bytes[] memory calldatas, string memory description)\n        public\n        override(Governor, IGovernor)\n        returns (uint256)\n    {\n        return super.propose(targets, values, calldatas, description);\n    }\n\n    function proposalThreshold()\n        public\n        view\n        override(Governor, GovernorSettings)\n        returns (uint256)\n    {\n        return super.proposalThreshold();\n    }\n\n    function _execute(uint256 proposalId, address[] memory targets, uint256[] memory values, bytes[] memory calldatas, bytes32 descriptionHash)\n        internal\n        override(Governor, GovernorTimelockControl)\n    {\n        super._execute(proposalId, targets, values, calldatas, descriptionHash);\n    }\n\n    function _cancel(address[] memory targets, uint256[] memory values, bytes[] memory calldatas, bytes32 descriptionHash)\n        internal\n        override(Governor, GovernorTimelockControl)\n        returns (uint256)\n    {\n        return super._cancel(targets, values, calldatas, descriptionHash);\n    }\n\n    function _executor()\n        internal\n        view\n        override(Governor, GovernorTimelockControl)\n        returns (address)\n    {\n        return super._executor();\n    }\n\n    function supportsInterface(bytes4 interfaceId)\n        public\n        view\n        override(Governor, GovernorTimelockControl)\n        returns (bool)\n    {\n        return super.supportsInterface(interfaceId);\n    }\n}",
  "sourcePath": "/Users/blakehatch/WebstormProjects/Bevor-Contracts/contracts/BevorDAO.sol",
  "compiler": {
    "name": "solc",
    "version": "0.8.20+commit.a1b79de6.Emscripten.clang"
  },
  "schemaVersion": "3.4.14",
  "updatedAt": "2023-06-10T03:47:55.560Z",
  "devdoc": {
    "errors": {
      "Empty()": [
        {
          "details": "An operation (e.g. {front}) couldn't be completed due to the queue being empty."
        }
      ]
    },
    "events": {
      "EIP712DomainChanged()": {
        "details": "MAY be emitted to signal that the domain could have changed."
      },
      "ProposalCanceled(uint256)": {
        "details": "Emitted when a proposal is canceled."
      },
      "ProposalCreated(uint256,address,address[],uint256[],string[],bytes[],uint256,uint256,string)": {
        "details": "Emitted when a proposal is created."
      },
      "ProposalExecuted(uint256)": {
        "details": "Emitted when a proposal is executed."
      },
      "TimelockChange(address,address)": {
        "details": "Emitted when the timelock controller used for proposal execution is modified."
      },
      "VoteCast(address,uint256,uint8,uint256,string)": {
        "details": "Emitted when a vote is cast without params. Note: `support` values should be seen as buckets. Their interpretation depends on the voting module used."
      },
      "VoteCastWithParams(address,uint256,uint8,uint256,string,bytes)": {
        "details": "Emitted when a vote is cast with params. Note: `support` values should be seen as buckets. Their interpretation depends on the voting module used. `params` are additional encoded parameters. Their interpepretation also depends on the voting module used."
      }
    },
    "kind": "dev",
    "methods": {
      "CLOCK_MODE()": {
        "details": "Machine-readable description of the clock as specified in EIP-6372."
      },
      "COUNTING_MODE()": {
        "details": "See {IGovernor-COUNTING_MODE}."
      },
      "cancel(address[],uint256[],bytes[],bytes32)": {
        "details": "See {IGovernor-cancel}."
      },
      "castVote(uint256,uint8)": {
        "details": "See {IGovernor-castVote}."
      },
      "castVoteBySig(uint256,uint8,uint8,bytes32,bytes32)": {
        "details": "See {IGovernor-castVoteBySig}."
      },
      "castVoteWithReason(uint256,uint8,string)": {
        "details": "See {IGovernor-castVoteWithReason}."
      },
      "castVoteWithReasonAndParams(uint256,uint8,string,bytes)": {
        "details": "See {IGovernor-castVoteWithReasonAndParams}."
      },
      "castVoteWithReasonAndParamsBySig(uint256,uint8,string,bytes,uint8,bytes32,bytes32)": {
        "details": "See {IGovernor-castVoteWithReasonAndParamsBySig}."
      },
      "clock()": {
        "details": "Clock (as specified in EIP-6372) is set to match the token's clock. Fallback to block numbers if the token does not implement EIP-6372."
      },
      "eip712Domain()": {
        "details": "See {EIP-5267}. _Available since v4.9._"
      },
      "execute(address[],uint256[],bytes[],bytes32)": {
        "details": "See {IGovernor-execute}."
      },
      "getVotes(address,uint256)": {
        "details": "See {IGovernor-getVotes}."
      },
      "getVotesWithParams(address,uint256,bytes)": {
        "details": "See {IGovernor-getVotesWithParams}."
      },
      "hasVoted(uint256,address)": {
        "details": "See {IGovernor-hasVoted}."
      },
      "hashProposal(address[],uint256[],bytes[],bytes32)": {
        "details": "See {IGovernor-hashProposal}. The proposal id is produced by hashing the ABI encoded `targets` array, the `values` array, the `calldatas` array and the descriptionHash (bytes32 which itself is the keccak256 hash of the description string). This proposal id can be produced from the proposal data which is part of the {ProposalCreated} event. It can even be computed in advance, before the proposal is submitted. Note that the chainId and the governor address are not part of the proposal id computation. Consequently, the same proposal (with same operation and same description) will have the same id if submitted on multiple governors across multiple networks. This also means that in order to execute the same operation twice (on the same governor) the proposer will have to change the description in order to avoid proposal id conflicts."
      },
      "name()": {
        "details": "See {IGovernor-name}."
      },
      "onERC1155BatchReceived(address,address,uint256[],uint256[],bytes)": {
        "details": "See {IERC1155Receiver-onERC1155BatchReceived}."
      },
      "onERC1155Received(address,address,uint256,uint256,bytes)": {
        "details": "See {IERC1155Receiver-onERC1155Received}."
      },
      "onERC721Received(address,address,uint256,bytes)": {
        "details": "See {IERC721Receiver-onERC721Received}."
      },
      "proposalDeadline(uint256)": {
        "details": "See {IGovernor-proposalDeadline}."
      },
      "proposalEta(uint256)": {
        "details": "Public accessor to check the eta of a queued proposal"
      },
      "proposalProposer(uint256)": {
        "details": "Returns the account that created a given proposal."
      },
      "proposalSnapshot(uint256)": {
        "details": "See {IGovernor-proposalSnapshot}."
      },
      "proposalVotes(uint256)": {
        "details": "Accessor to the internal vote counts."
      },
      "queue(address[],uint256[],bytes[],bytes32)": {
        "details": "Function to queue a proposal to the timelock."
      },
      "quorumDenominator()": {
        "details": "Returns the quorum denominator. Defaults to 100, but may be overridden."
      },
      "quorumNumerator()": {
        "details": "Returns the current quorum numerator. See {quorumDenominator}."
      },
      "quorumNumerator(uint256)": {
        "details": "Returns the quorum numerator at a specific timepoint. See {quorumDenominator}."
      },
      "relay(address,uint256,bytes)": {
        "details": "Relays a transaction or function call to an arbitrary target. In cases where the governance executor is some contract other than the governor itself, like when using a timelock, this function can be invoked in a governance proposal to recover tokens or Ether that was sent to the governor contract by mistake. Note that if the executor is simply the governor itself, use of `relay` is redundant."
      },
      "setProposalThreshold(uint256)": {
        "details": "Update the proposal threshold. This operation can only be performed through a governance proposal. Emits a {ProposalThresholdSet} event."
      },
      "setVotingDelay(uint256)": {
        "details": "Update the voting delay. This operation can only be performed through a governance proposal. Emits a {VotingDelaySet} event."
      },
      "setVotingPeriod(uint256)": {
        "details": "Update the voting period. This operation can only be performed through a governance proposal. Emits a {VotingPeriodSet} event."
      },
      "timelock()": {
        "details": "Public accessor to check the address of the timelock"
      },
      "updateQuorumNumerator(uint256)": {
        "details": "Changes the quorum numerator. Emits a {QuorumNumeratorUpdated} event. Requirements: - Must be called through a governance proposal. - New numerator must be smaller or equal to the denominator."
      },
      "updateTimelock(address)": {
        "details": "Public endpoint to update the underlying timelock instance. Restricted to the timelock itself, so updates must be proposed, scheduled, and executed through governance proposals. CAUTION: It is not recommended to change the timelock while there are other queued governance proposals."
      },
      "version()": {
        "details": "See {IGovernor-version}."
      }
    },
    "version": 1
  },
  "userdoc": {
    "kind": "user",
    "methods": {},
    "version": 1
  }
}